{
  "_format": "hh-sol-artifact-1",
  "contractName": "EncryptedVoting",
  "sourceName": "contracts/Voting.sol",
  "abi": [
    {
      "inputs": [
        {
          "internalType": "string[]",
          "name": "_names",
          "type": "string[]"
        },
        {
          "internalType": "string[]",
          "name": "_descriptions",
          "type": "string[]"
        },
        {
          "internalType": "uint256",
          "name": "_p",
          "type": "uint256"
        },
        {
          "internalType": "uint256",
          "name": "_g",
          "type": "uint256"
        },
        {
          "internalType": "address[]",
          "name": "_predefinedWhitelist",
          "type": "address[]"
        }
      ],
      "stateMutability": "nonpayable",
      "type": "constructor"
    },
    {
      "anonymous": false,
      "inputs": [
        {
          "indexed": true,
          "internalType": "uint256",
          "name": "candidateId",
          "type": "uint256"
        },
        {
          "indexed": false,
          "internalType": "string",
          "name": "name",
          "type": "string"
        },
        {
          "indexed": false,
          "internalType": "string",
          "name": "description",
          "type": "string"
        }
      ],
      "name": "CandidateAdded",
      "type": "event"
    },
    {
      "anonymous": false,
      "inputs": [
        {
          "indexed": true,
          "internalType": "address",
          "name": "voter",
          "type": "address"
        },
        {
          "indexed": false,
          "internalType": "uint256",
          "name": "timestamp",
          "type": "uint256"
        },
        {
          "indexed": false,
          "internalType": "uint256[]",
          "name": "c1List",
          "type": "uint256[]"
        },
        {
          "indexed": false,
          "internalType": "uint256[]",
          "name": "c2List",
          "type": "uint256[]"
        }
      ],
      "name": "Voted",
      "type": "event"
    },
    {
      "inputs": [
        {
          "internalType": "address",
          "name": "_address",
          "type": "address"
        }
      ],
      "name": "addToWhitelist",
      "outputs": [],
      "stateMutability": "nonpayable",
      "type": "function"
    },
    {
      "inputs": [],
      "name": "admin",
      "outputs": [
        {
          "internalType": "address",
          "name": "",
          "type": "address"
        }
      ],
      "stateMutability": "view",
      "type": "function"
    },
    {
      "inputs": [
        {
          "internalType": "uint256",
          "name": "",
          "type": "uint256"
        }
      ],
      "name": "candidates",
      "outputs": [
        {
          "internalType": "string",
          "name": "name",
          "type": "string"
        },
        {
          "internalType": "string",
          "name": "description",
          "type": "string"
        },
        {
          "internalType": "uint256",
          "name": "c1",
          "type": "uint256"
        },
        {
          "internalType": "uint256",
          "name": "c2",
          "type": "uint256"
        }
      ],
      "stateMutability": "view",
      "type": "function"
    },
    {
      "inputs": [],
      "name": "endVoting",
      "outputs": [],
      "stateMutability": "nonpayable",
      "type": "function"
    },
    {
      "inputs": [],
      "name": "g",
      "outputs": [
        {
          "internalType": "uint256",
          "name": "",
          "type": "uint256"
        }
      ],
      "stateMutability": "view",
      "type": "function"
    },
    {
      "inputs": [],
      "name": "getCandidateCount",
      "outputs": [
        {
          "internalType": "uint256",
          "name": "",
          "type": "uint256"
        }
      ],
      "stateMutability": "view",
      "type": "function"
    },
    {
      "inputs": [
        {
          "internalType": "uint256",
          "name": "_candidateId",
          "type": "uint256"
        }
      ],
      "name": "getCandidateInfo",
      "outputs": [
        {
          "internalType": "string",
          "name": "name",
          "type": "string"
        },
        {
          "internalType": "string",
          "name": "description",
          "type": "string"
        },
        {
          "internalType": "uint256",
          "name": "c1",
          "type": "uint256"
        },
        {
          "internalType": "uint256",
          "name": "c2",
          "type": "uint256"
        }
      ],
      "stateMutability": "view",
      "type": "function"
    },
    {
      "inputs": [],
      "name": "getResults",
      "outputs": [
        {
          "internalType": "uint256[]",
          "name": "",
          "type": "uint256[]"
        },
        {
          "internalType": "uint256[]",
          "name": "",
          "type": "uint256[]"
        }
      ],
      "stateMutability": "view",
      "type": "function"
    },
    {
      "inputs": [],
      "name": "p",
      "outputs": [
        {
          "internalType": "uint256",
          "name": "",
          "type": "uint256"
        }
      ],
      "stateMutability": "view",
      "type": "function"
    },
    {
      "inputs": [
        {
          "internalType": "address",
          "name": "_address",
          "type": "address"
        }
      ],
      "name": "removeFromWhitelist",
      "outputs": [],
      "stateMutability": "nonpayable",
      "type": "function"
    },
    {
      "inputs": [
        {
          "internalType": "uint256[]",
          "name": "c1List",
          "type": "uint256[]"
        },
        {
          "internalType": "uint256[]",
          "name": "c2List",
          "type": "uint256[]"
        }
      ],
      "name": "vote",
      "outputs": [],
      "stateMutability": "nonpayable",
      "type": "function"
    },
    {
      "inputs": [
        {
          "internalType": "address",
          "name": "",
          "type": "address"
        }
      ],
      "name": "voters",
      "outputs": [
        {
          "internalType": "bool",
          "name": "",
          "type": "bool"
        }
      ],
      "stateMutability": "view",
      "type": "function"
    },
    {
      "inputs": [],
      "name": "votingEnded",
      "outputs": [
        {
          "internalType": "bool",
          "name": "",
          "type": "bool"
        }
      ],
      "stateMutability": "view",
      "type": "function"
    },
    {
      "inputs": [
        {
          "internalType": "address",
          "name": "",
          "type": "address"
        }
      ],
      "name": "whitelist",
      "outputs": [
        {
          "internalType": "bool",
          "name": "",
          "type": "bool"
        }
      ],
      "stateMutability": "view",
      "type": "function"
    }
  ],
  "bytecode": "0x60e06040523480156200001157600080fd5b506040516200298c3803806200298c83398181016040528101906200003791906200079f565b83518551146200007e576040517f08c379a000000000000000000000000000000000000000000000000000000000815260040162000075906200090b565b60405180910390fd5b6000855111620000c5576040517f08c379a0000000000000000000000000000000000000000000000000000000008152600401620000bc906200097d565b60405180910390fd5b3373ffffffffffffffffffffffffffffffffffffffff1660808173ffffffffffffffffffffffffffffffffffffffff16815250508260a081815250508160c0818152505060005b855181101562000178576200016286828151811062000130576200012f6200099f565b5b60200260200101518683815181106200014e576200014d6200099f565b5b6020026020010151620002b360201b60201c565b80806200016f90620009fd565b9150506200010c565b5060005b8151811015620002a75760008282815181106200019e576200019d6200099f565b5b60200260200101519050600260008273ffffffffffffffffffffffffffffffffffffffff1673ffffffffffffffffffffffffffffffffffffffff16815260200190815260200160002060009054906101000a900460ff161562000238576040517f08c379a00000000000000000000000000000000000000000000000000000000081526004016200022f9062000a9a565b60405180910390fd5b6001600260008373ffffffffffffffffffffffffffffffffffffffff1673ffffffffffffffffffffffffffffffffffffffff16815260200190815260200160002060006101000a81548160ff0219169083151502179055505080806200029e90620009fd565b9150506200017c565b50505050505062000e9b565b600060405180608001604052808481526020018381526020016001815260200160018152509080600181540180825580915050600190039060005260206000209060040201600090919091909150600082015181600001908162000318919062000cfd565b50602082015181600101908162000330919062000cfd565b506040820151816002015560608201518160030155505060016000805490506200035b919062000de4565b7fe64f834082661dd9ed89427b87edb6270fd6dad17198b0938f0edd058914c87f83836040516200038e92919062000e60565b60405180910390a25050565b6000604051905090565b600080fd5b600080fd5b600080fd5b6000601f19601f8301169050919050565b7f4e487b7100000000000000000000000000000000000000000000000000000000600052604160045260246000fd5b620003fe82620003b3565b810181811067ffffffffffffffff8211171562000420576200041f620003c4565b5b80604052505050565b6000620004356200039a565b9050620004438282620003f3565b919050565b600067ffffffffffffffff821115620004665762000465620003c4565b5b602082029050602081019050919050565b600080fd5b600080fd5b600067ffffffffffffffff8211156200049f576200049e620003c4565b5b620004aa82620003b3565b9050602081019050919050565b60005b83811015620004d7578082015181840152602081019050620004ba565b60008484015250505050565b6000620004fa620004f48462000481565b62000429565b9050828152602081018484840111156200051957620005186200047c565b5b62000526848285620004b7565b509392505050565b600082601f830112620005465762000545620003ae565b5b815162000558848260208601620004e3565b91505092915050565b600062000578620005728462000448565b62000429565b905080838252602082019050602084028301858111156200059e576200059d62000477565b5b835b81811015620005ec57805167ffffffffffffffff811115620005c757620005c6620003ae565b5b808601620005d689826200052e565b85526020850194505050602081019050620005a0565b5050509392505050565b600082601f8301126200060e576200060d620003ae565b5b81516200062084826020860162000561565b91505092915050565b6000819050919050565b6200063e8162000629565b81146200064a57600080fd5b50565b6000815190506200065e8162000633565b92915050565b600067ffffffffffffffff821115620006825762000681620003c4565b5b602082029050602081019050919050565b600073ffffffffffffffffffffffffffffffffffffffff82169050919050565b6000620006c08262000693565b9050919050565b620006d281620006b3565b8114620006de57600080fd5b50565b600081519050620006f281620006c7565b92915050565b60006200070f620007098462000664565b62000429565b9050808382526020820190506020840283018581111562000735576200073462000477565b5b835b818110156200076257806200074d8882620006e1565b84526020840193505060208101905062000737565b5050509392505050565b600082601f830112620007845762000783620003ae565b5b815162000796848260208601620006f8565b91505092915050565b600080600080600060a08688031215620007be57620007bd620003a4565b5b600086015167ffffffffffffffff811115620007df57620007de620003a9565b5b620007ed88828901620005f6565b955050602086015167ffffffffffffffff811115620008115762000810620003a9565b5b6200081f88828901620005f6565b945050604062000832888289016200064d565b935050606062000845888289016200064d565b925050608086015167ffffffffffffffff811115620008695762000868620003a9565b5b62000877888289016200076c565b9150509295509295909350565b600082825260208201905092915050565b7f4e616d6520616e64206465736372697074696f6e206172726179206d69736d6160008201527f7463680000000000000000000000000000000000000000000000000000000000602082015250565b6000620008f360238362000884565b9150620009008262000895565b604082019050919050565b600060208201905081810360008301526200092681620008e4565b9050919050565b7f4174206c65617374206f6e652063616e64696461746520726571756972656400600082015250565b600062000965601f8362000884565b915062000972826200092d565b602082019050919050565b60006020820190508181036000830152620009988162000956565b9050919050565b7f4e487b7100000000000000000000000000000000000000000000000000000000600052603260045260246000fd5b7f4e487b7100000000000000000000000000000000000000000000000000000000600052601160045260246000fd5b600062000a0a8262000629565b91507fffffffffffffffffffffffffffffffffffffffffffffffffffffffffffffffff820362000a3f5762000a3e620009ce565b5b600182019050919050565b7f4475706c6963617465206164647265737320696e2077686974656c6973740000600082015250565b600062000a82601e8362000884565b915062000a8f8262000a4a565b602082019050919050565b6000602082019050818103600083015262000ab58162000a73565b9050919050565b600081519050919050565b7f4e487b7100000000000000000000000000000000000000000000000000000000600052602260045260246000fd5b6000600282049050600182168062000b0f57607f821691505b60208210810362000b255762000b2462000ac7565b5b50919050565b60008190508160005260206000209050919050565b60006020601f8301049050919050565b600082821b905092915050565b60006008830262000b8f7fffffffffffffffffffffffffffffffffffffffffffffffffffffffffffffffff8262000b50565b62000b9b868362000b50565b95508019841693508086168417925050509392505050565b6000819050919050565b600062000bde62000bd862000bd28462000629565b62000bb3565b62000629565b9050919050565b6000819050919050565b62000bfa8362000bbd565b62000c1262000c098262000be5565b84845462000b5d565b825550505050565b600090565b62000c2962000c1a565b62000c3681848462000bef565b505050565b5b8181101562000c5e5762000c5260008262000c1f565b60018101905062000c3c565b5050565b601f82111562000cad5762000c778162000b2b565b62000c828462000b40565b8101602085101562000c92578190505b62000caa62000ca18562000b40565b83018262000c3b565b50505b505050565b600082821c905092915050565b600062000cd26000198460080262000cb2565b1980831691505092915050565b600062000ced838362000cbf565b9150826002028217905092915050565b62000d088262000abc565b67ffffffffffffffff81111562000d245762000d23620003c4565b5b62000d30825462000af6565b62000d3d82828562000c62565b600060209050601f83116001811462000d75576000841562000d60578287015190505b62000d6c858262000cdf565b86555062000ddc565b601f19841662000d858662000b2b565b60005b8281101562000daf5784890151825560018201915060208501945060208101905062000d88565b8683101562000dcf578489015162000dcb601f89168262000cbf565b8355505b6001600288020188555050505b505050505050565b600062000df18262000629565b915062000dfe8362000629565b925082820390508181111562000e195762000e18620009ce565b5b92915050565b600062000e2c8262000abc565b62000e38818562000884565b935062000e4a818560208601620004b7565b62000e5581620003b3565b840191505092915050565b6000604082019050818103600083015262000e7c818562000e1f565b9050818103602083015262000e92818462000e1f565b90509392505050565b60805160a05160c051611a9e62000eee6000396000610e1d01526000818161098d01528181610a260152610cfb015260008181610b8601528181610d7201528181610e410152610fb70152611a9e6000f3fe608060405234801561001057600080fd5b50600436106100ea5760003560e01c80639b19251a1161008c578063c3403ddf11610066578063c3403ddf14610266578063e2179b8e14610270578063e43252d71461028e578063f851a440146102aa576100ea565b80639b19251a146101e85780639d5a052914610218578063a3ec138d14610236576100ea565b806370f67cfe116100c857806370f67cfe1461015f5780638733ece7146101925780638ab1d681146101ae5780639ae8886a146101ca576100ea565b806330a56347146100ef5780633477ee2e1461010d5780634717f97c14610140575b600080fd5b6100f76102c8565b6040516101049190610ff2565b60405180910390f35b61012760048036038101906101229190611043565b6102d4565b6040516101379493929190611100565b60405180910390f35b610148610424565b604051610156929190611211565b60405180910390f35b61017960048036038101906101749190611043565b6105d2565b6040516101899493929190611100565b60405180910390f35b6101ac60048036038101906101a791906112ad565b61077e565b005b6101c860048036038101906101c3919061138c565b610b84565b005b6101d2610cf9565b6040516101df9190610ff2565b60405180910390f35b61020260048036038101906101fd919061138c565b610d1d565b60405161020f91906113d4565b60405180910390f35b610220610d3d565b60405161022d91906113d4565b60405180910390f35b610250600480360381019061024b919061138c565b610d50565b60405161025d91906113d4565b60405180910390f35b61026e610d70565b005b610278610e1b565b6040516102859190610ff2565b60405180910390f35b6102a860048036038101906102a3919061138c565b610e3f565b005b6102b2610fb5565b6040516102bf91906113fe565b60405180910390f35b60008080549050905090565b600081815481106102e457600080fd5b906000526020600020906004020160009150905080600001805461030790611448565b80601f016020809104026020016040519081016040528092919081815260200182805461033390611448565b80156103805780601f1061035557610100808354040283529160200191610380565b820191906000526020600020905b81548152906001019060200180831161036357829003601f168201915b50505050509080600101805461039590611448565b80601f01602080910402602001604051908101604052809291908181526020018280546103c190611448565b801561040e5780601f106103e35761010080835404028352916020019161040e565b820191906000526020600020905b8154815290600101906020018083116103f157829003601f168201915b5050505050908060020154908060030154905084565b606080600360009054906101000a900460ff16610476576040517f08c379a000000000000000000000000000000000000000000000000000000000815260040161046d906114c5565b60405180910390fd5b6000808054905067ffffffffffffffff811115610496576104956114e5565b5b6040519080825280602002602001820160405280156104c45781602001602082028036833780820191505090505b5090506000808054905067ffffffffffffffff8111156104e7576104e66114e5565b5b6040519080825280602002602001820160405280156105155781602001602082028036833780820191505090505b50905060005b6000805490508110156105c5576000818154811061053c5761053b611514565b5b90600052602060002090600402016002015483828151811061056157610560611514565b5b6020026020010181815250506000818154811061058157610580611514565b5b9060005260206000209060040201600301548282815181106105a6576105a5611514565b5b60200260200101818152505080806105bd90611572565b91505061051b565b5081819350935050509091565b606080600080600080549050851061061f576040517f08c379a000000000000000000000000000000000000000000000000000000000815260040161061690611606565b60405180910390fd5b600080868154811061063457610633611514565b5b9060005260206000209060040201905080600001816001018260020154836003015483805461066290611448565b80601f016020809104026020016040519081016040528092919081815260200182805461068e90611448565b80156106db5780601f106106b0576101008083540402835291602001916106db565b820191906000526020600020905b8154815290600101906020018083116106be57829003601f168201915b505050505093508280546106ee90611448565b80601f016020809104026020016040519081016040528092919081815260200182805461071a90611448565b80156107675780601f1061073c57610100808354040283529160200191610767565b820191906000526020600020905b81548152906001019060200180831161074a57829003601f168201915b505050505092509450945094509450509193509193565b600360009054906101000a900460ff16156107ce576040517f08c379a00000000000000000000000000000000000000000000000000000000081526004016107c590611672565b60405180910390fd5b600260003373ffffffffffffffffffffffffffffffffffffffff1673ffffffffffffffffffffffffffffffffffffffff16815260200190815260200160002060009054906101000a900460ff1661085a576040517f08c379a0000000000000000000000000000000000000000000000000000000008152600401610851906116de565b60405180910390fd5b600160003373ffffffffffffffffffffffffffffffffffffffff1673ffffffffffffffffffffffffffffffffffffffff16815260200190815260200160002060009054906101000a900460ff16156108e7576040517f08c379a00000000000000000000000000000000000000000000000000000000081526004016108de9061174a565b60405180910390fd5b6000805490508484905014610931576040517f08c379a0000000000000000000000000000000000000000000000000000000008152600401610928906117b6565b60405180910390fd5b600080549050828290501461097b576040517f08c379a000000000000000000000000000000000000000000000000000000000815260040161097290611822565b60405180910390fd5b60005b600080549050811015610ad0577f0000000000000000000000000000000000000000000000000000000000000000806109ba576109b9611842565b5b8585838181106109cd576109cc611514565b5b90506020020135600083815481106109e8576109e7611514565b5b9060005260206000209060040201600201540960008281548110610a0f57610a0e611514565b5b9060005260206000209060040201600201819055507f000000000000000000000000000000000000000000000000000000000000000080610a5357610a52611842565b5b838383818110610a6657610a65611514565b5b9050602002013560008381548110610a8157610a80611514565b5b9060005260206000209060040201600301540960008281548110610aa857610aa7611514565b5b9060005260206000209060040201600301819055508080610ac890611572565b91505061097e565b5060018060003373ffffffffffffffffffffffffffffffffffffffff1673ffffffffffffffffffffffffffffffffffffffff16815260200190815260200160002060006101000a81548160ff0219169083151502179055503373ffffffffffffffffffffffffffffffffffffffff167f41fb36d1e99d43c90f7c97533fdb06ff412d7ce8ef97b5b36c59c711d29e7c844286868686604051610b769594939291906118db565b60405180910390a250505050565b7f000000000000000000000000000000000000000000000000000000000000000073ffffffffffffffffffffffffffffffffffffffff163373ffffffffffffffffffffffffffffffffffffffff1614610c12576040517f08c379a0000000000000000000000000000000000000000000000000000000008152600401610c0990611970565b60405180910390fd5b600260008273ffffffffffffffffffffffffffffffffffffffff1673ffffffffffffffffffffffffffffffffffffffff16815260200190815260200160002060009054906101000a900460ff16610c9e576040517f08c379a0000000000000000000000000000000000000000000000000000000008152600401610c95906119dc565b60405180910390fd5b6000600260008373ffffffffffffffffffffffffffffffffffffffff1673ffffffffffffffffffffffffffffffffffffffff16815260200190815260200160002060006101000a81548160ff02191690831515021790555050565b7f000000000000000000000000000000000000000000000000000000000000000081565b60026020528060005260406000206000915054906101000a900460ff1681565b600360009054906101000a900460ff1681565b60016020528060005260406000206000915054906101000a900460ff1681565b7f000000000000000000000000000000000000000000000000000000000000000073ffffffffffffffffffffffffffffffffffffffff163373ffffffffffffffffffffffffffffffffffffffff1614610dfe576040517f08c379a0000000000000000000000000000000000000000000000000000000008152600401610df590611970565b60405180910390fd5b6001600360006101000a81548160ff021916908315150217905550565b7f000000000000000000000000000000000000000000000000000000000000000081565b7f000000000000000000000000000000000000000000000000000000000000000073ffffffffffffffffffffffffffffffffffffffff163373ffffffffffffffffffffffffffffffffffffffff1614610ecd576040517f08c379a0000000000000000000000000000000000000000000000000000000008152600401610ec490611970565b60405180910390fd5b600260008273ffffffffffffffffffffffffffffffffffffffff1673ffffffffffffffffffffffffffffffffffffffff16815260200190815260200160002060009054906101000a900460ff1615610f5a576040517f08c379a0000000000000000000000000000000000000000000000000000000008152600401610f5190611a48565b60405180910390fd5b6001600260008373ffffffffffffffffffffffffffffffffffffffff1673ffffffffffffffffffffffffffffffffffffffff16815260200190815260200160002060006101000a81548160ff02191690831515021790555050565b7f000000000000000000000000000000000000000000000000000000000000000081565b6000819050919050565b610fec81610fd9565b82525050565b60006020820190506110076000830184610fe3565b92915050565b600080fd5b600080fd5b61102081610fd9565b811461102b57600080fd5b50565b60008135905061103d81611017565b92915050565b6000602082840312156110595761105861100d565b5b60006110678482850161102e565b91505092915050565b600081519050919050565b600082825260208201905092915050565b60005b838110156110aa57808201518184015260208101905061108f565b60008484015250505050565b6000601f19601f8301169050919050565b60006110d282611070565b6110dc818561107b565b93506110ec81856020860161108c565b6110f5816110b6565b840191505092915050565b6000608082019050818103600083015261111a81876110c7565b9050818103602083015261112e81866110c7565b905061113d6040830185610fe3565b61114a6060830184610fe3565b95945050505050565b600081519050919050565b600082825260208201905092915050565b6000819050602082019050919050565b61118881610fd9565b82525050565b600061119a838361117f565b60208301905092915050565b6000602082019050919050565b60006111be82611153565b6111c8818561115e565b93506111d38361116f565b8060005b838110156112045781516111eb888261118e565b97506111f6836111a6565b9250506001810190506111d7565b5085935050505092915050565b6000604082019050818103600083015261122b81856111b3565b9050818103602083015261123f81846111b3565b90509392505050565b600080fd5b600080fd5b600080fd5b60008083601f84011261126d5761126c611248565b5b8235905067ffffffffffffffff81111561128a5761128961124d565b5b6020830191508360208202830111156112a6576112a5611252565b5b9250929050565b600080600080604085870312156112c7576112c661100d565b5b600085013567ffffffffffffffff8111156112e5576112e4611012565b5b6112f187828801611257565b9450945050602085013567ffffffffffffffff81111561131457611313611012565b5b61132087828801611257565b925092505092959194509250565b600073ffffffffffffffffffffffffffffffffffffffff82169050919050565b60006113598261132e565b9050919050565b6113698161134e565b811461137457600080fd5b50565b60008135905061138681611360565b92915050565b6000602082840312156113a2576113a161100d565b5b60006113b084828501611377565b91505092915050565b60008115159050919050565b6113ce816113b9565b82525050565b60006020820190506113e960008301846113c5565b92915050565b6113f88161134e565b82525050565b600060208201905061141360008301846113ef565b92915050565b7f4e487b7100000000000000000000000000000000000000000000000000000000600052602260045260246000fd5b6000600282049050600182168061146057607f821691505b60208210810361147357611472611419565b5b50919050565b7f566f74696e67206e6f7420656e64656400000000000000000000000000000000600082015250565b60006114af60108361107b565b91506114ba82611479565b602082019050919050565b600060208201905081810360008301526114de816114a2565b9050919050565b7f4e487b7100000000000000000000000000000000000000000000000000000000600052604160045260246000fd5b7f4e487b7100000000000000000000000000000000000000000000000000000000600052603260045260246000fd5b7f4e487b7100000000000000000000000000000000000000000000000000000000600052601160045260246000fd5b600061157d82610fd9565b91507fffffffffffffffffffffffffffffffffffffffffffffffffffffffffffffffff82036115af576115ae611543565b5b600182019050919050565b7f496e76616c69642063616e646964617465204944000000000000000000000000600082015250565b60006115f060148361107b565b91506115fb826115ba565b602082019050919050565b6000602082019050818103600083015261161f816115e3565b9050919050565b7f566f74696e6720656e6465640000000000000000000000000000000000000000600082015250565b600061165c600c8361107b565b915061166782611626565b602082019050919050565b6000602082019050818103600083015261168b8161164f565b9050919050565b7f4e6f7420696e2077686974656c69737400000000000000000000000000000000600082015250565b60006116c860108361107b565b91506116d382611692565b602082019050919050565b600060208201905081810360008301526116f7816116bb565b9050919050565b7f416c726561647920766f74656400000000000000000000000000000000000000600082015250565b6000611734600d8361107b565b915061173f826116fe565b602082019050919050565b6000602082019050818103600083015261176381611727565b9050919050565b7f496e76616c696420633120646174610000000000000000000000000000000000600082015250565b60006117a0600f8361107b565b91506117ab8261176a565b602082019050919050565b600060208201905081810360008301526117cf81611793565b9050919050565b7f496e76616c696420633220646174610000000000000000000000000000000000600082015250565b600061180c600f8361107b565b9150611817826117d6565b602082019050919050565b6000602082019050818103600083015261183b816117ff565b9050919050565b7f4e487b7100000000000000000000000000000000000000000000000000000000600052601260045260246000fd5b600080fd5b82818337505050565b600061188b838561115e565b93507f07ffffffffffffffffffffffffffffffffffffffffffffffffffffffffffffff8311156118be576118bd611871565b5b6020830292506118cf838584611876565b82840190509392505050565b60006060820190506118f06000830188610fe3565b818103602083015261190381868861187f565b9050818103604083015261191881848661187f565b90509695505050505050565b7f41646d696e206f6e6c7900000000000000000000000000000000000000000000600082015250565b600061195a600a8361107b565b915061196582611924565b602082019050919050565b600060208201905081810360008301526119898161194d565b9050919050565b7f41646472657373206e6f7420696e2077686974656c6973740000000000000000600082015250565b60006119c660188361107b565b91506119d182611990565b602082019050919050565b600060208201905081810360008301526119f5816119b9565b9050919050565b7f4164647265737320616c726561647920696e2077686974656c69737400000000600082015250565b6000611a32601c8361107b565b9150611a3d826119fc565b602082019050919050565b60006020820190508181036000830152611a6181611a25565b905091905056fea264697066735822122057d1dbe5ea69b5484e0763fa92119aed2d51528e8a98317aafad69fc6032139464736f6c63430008130033",
  "linkReferences": {},
  "deployedLinkReferences": {}
}