{
    "_format": "hh-sol-artifact-1",
    "contractName": "EncryptedVoting",
    "sourceName": "contracts/Voting.sol",
    "abi": [
        {
            "inputs": [
                {
                    "internalType": "uint256",
                    "name": "_candidateCount",
                    "type": "uint256"
                },
                {
                    "internalType": "uint256",
                    "name": "_p",
                    "type": "uint256"
                },
                {
                    "internalType": "uint256",
                    "name": "_g",
                    "type": "uint256"
                }
            ],
            "stateMutability": "nonpayable",
            "type": "constructor"
        },
        {
            "inputs": [],
            "name": "admin",
            "outputs": [
                {
                    "internalType": "address",
                    "name": "",
                    "type": "address"
                }
            ],
            "stateMutability": "view",
            "type": "function"
        },
        {
            "inputs": [
                {
                    "internalType": "uint256",
                    "name": "",
                    "type": "uint256"
                }
            ],
            "name": "candidates",
            "outputs": [
                {
                    "internalType": "uint256",
                    "name": "c1",
                    "type": "uint256"
                },
                {
                    "internalType": "uint256",
                    "name": "c2",
                    "type": "uint256"
                }
            ],
            "stateMutability": "view",
            "type": "function"
        },
        {
            "inputs": [],
            "name": "endVoting",
            "outputs": [],
            "stateMutability": "nonpayable",
            "type": "function"
        },
        {
            "inputs": [],
            "name": "g",
            "outputs": [
                {
                    "internalType": "uint256",
                    "name": "",
                    "type": "uint256"
                }
            ],
            "stateMutability": "view",
            "type": "function"
        },
        {
            "inputs": [],
            "name": "getResults",
            "outputs": [
                {
                    "internalType": "uint256[]",
                    "name": "",
                    "type": "uint256[]"
                },
                {
                    "internalType": "uint256[]",
                    "name": "",
                    "type": "uint256[]"
                }
            ],
            "stateMutability": "view",
            "type": "function"
        },
        {
            "inputs": [],
            "name": "p",
            "outputs": [
                {
                    "internalType": "uint256",
                    "name": "",
                    "type": "uint256"
                }
            ],
            "stateMutability": "view",
            "type": "function"
        },
        {
            "inputs": [
                {
                    "internalType": "uint256[]",
                    "name": "c1List",
                    "type": "uint256[]"
                },
                {
                    "internalType": "uint256[]",
                    "name": "c2List",
                    "type": "uint256[]"
                }
            ],
            "name": "vote",
            "outputs": [],
            "stateMutability": "nonpayable",
            "type": "function"
        },
        {
            "inputs": [
                {
                    "internalType": "address",
                    "name": "",
                    "type": "address"
                }
            ],
            "name": "voters",
            "outputs": [
                {
                    "internalType": "bool",
                    "name": "",
                    "type": "bool"
                }
            ],
            "stateMutability": "view",
            "type": "function"
        },
        {
            "inputs": [],
            "name": "votingEnded",
            "outputs": [
                {
                    "internalType": "bool",
                    "name": "",
                    "type": "bool"
                }
            ],
            "stateMutability": "view",
            "type": "function"
        }
    ],
    "bytecode": "0x60c06040523480156200001157600080fd5b50604051620011b9380380620011b983398181016040528101906200003791906200014b565b336000806101000a81548173ffffffffffffffffffffffffffffffffffffffff021916908373ffffffffffffffffffffffffffffffffffffffff16021790555081608081815250508060a0818152505060005b838110156200010157600160405180604001604052806001815260200160018152509080600181540180825580915050600190039060005260206000209060020201600090919091909150600082015181600001556020820151816001015550508080620000f890620001d6565b9150506200008a565b5050505062000223565b600080fd5b6000819050919050565b620001258162000110565b81146200013157600080fd5b50565b60008151905062000145816200011a565b92915050565b6000806000606084860312156200016757620001666200010b565b5b6000620001778682870162000134565b93505060206200018a8682870162000134565b92505060406200019d8682870162000134565b9150509250925092565b7f4e487b7100000000000000000000000000000000000000000000000000000000600052601160045260246000fd5b6000620001e38262000110565b91507fffffffffffffffffffffffffffffffffffffffffffffffffffffffffffffffff8203620002185762000217620001a7565b5b600182019050919050565b60805160a051610f626200025760003960006107c301526000818161051d015281816105b601526106c10152610f626000f3fe608060405234801561001057600080fd5b50600436106100935760003560e01c80639d5a0529116100665780639d5a052914610122578063a3ec138d14610140578063c3403ddf14610170578063e2179b8e1461017a578063f851a4401461019857610093565b80633477ee2e146100985780634717f97c146100c95780638733ece7146100e85780639ae8886a14610104575b600080fd5b6100b260048036038101906100ad9190610849565b6101b6565b6040516100c0929190610885565b60405180910390f35b6100d16101ea565b6040516100df92919061096c565b60405180910390f35b61010260048036038101906100fd9190610a08565b61039a565b005b61010c6106bf565b6040516101199190610a89565b60405180910390f35b61012a6106e3565b6040516101379190610abf565b60405180910390f35b61015a60048036038101906101559190610b38565b6106f6565b6040516101679190610abf565b60405180910390f35b610178610716565b005b6101826107c1565b60405161018f9190610a89565b60405180910390f35b6101a06107e5565b6040516101ad9190610b74565b60405180910390f35b600181815481106101c657600080fd5b90600052602060002090600202016000915090508060000154908060010154905082565b606080600360009054906101000a900460ff1661023c576040517f08c379a000000000000000000000000000000000000000000000000000000000815260040161023390610bec565b60405180910390fd5b600060018054905067ffffffffffffffff81111561025d5761025c610c0c565b5b60405190808252806020026020018201604052801561028b5781602001602082028036833780820191505090505b509050600060018054905067ffffffffffffffff8111156102af576102ae610c0c565b5b6040519080825280602002602001820160405280156102dd5781602001602082028036833780820191505090505b50905060005b60018054905081101561038d576001818154811061030457610303610c3b565b5b90600052602060002090600202016000015483828151811061032957610328610c3b565b5b6020026020010181815250506001818154811061034957610348610c3b565b5b90600052602060002090600202016001015482828151811061036e5761036d610c3b565b5b602002602001018181525050808061038590610c99565b9150506102e3565b5081819350935050509091565b600360009054906101000a900460ff16156103ea576040517f08c379a00000000000000000000000000000000000000000000000000000000081526004016103e190610d2d565b60405180910390fd5b600260003373ffffffffffffffffffffffffffffffffffffffff1673ffffffffffffffffffffffffffffffffffffffff16815260200190815260200160002060009054906101000a900460ff1615610477576040517f08c379a000000000000000000000000000000000000000000000000000000000815260040161046e90610d99565b60405180910390fd5b60018054905084849050146104c1576040517f08c379a00000000000000000000000000000000000000000000000000000000081526004016104b890610e05565b60405180910390fd5b600180549050828290501461050b576040517f08c379a000000000000000000000000000000000000000000000000000000000815260040161050290610e71565b60405180910390fd5b60005b600180549050811015610660577f00000000000000000000000000000000000000000000000000000000000000008061054a57610549610e91565b5b85858381811061055d5761055c610c3b565b5b905060200201356001838154811061057857610577610c3b565b5b906000526020600020906002020160000154096001828154811061059f5761059e610c3b565b5b9060005260206000209060020201600001819055507f0000000000000000000000000000000000000000000000000000000000000000806105e3576105e2610e91565b5b8383838181106105f6576105f5610c3b565b5b905060200201356001838154811061061157610610610c3b565b5b906000526020600020906002020160010154096001828154811061063857610637610c3b565b5b906000526020600020906002020160010181905550808061065890610c99565b91505061050e565b506001600260003373ffffffffffffffffffffffffffffffffffffffff1673ffffffffffffffffffffffffffffffffffffffff16815260200190815260200160002060006101000a81548160ff02191690831515021790555050505050565b7f000000000000000000000000000000000000000000000000000000000000000081565b600360009054906101000a900460ff1681565b60026020528060005260406000206000915054906101000a900460ff1681565b60008054906101000a900473ffffffffffffffffffffffffffffffffffffffff1673ffffffffffffffffffffffffffffffffffffffff163373ffffffffffffffffffffffffffffffffffffffff16146107a4576040517f08c379a000000000000000000000000000000000000000000000000000000000815260040161079b90610f0c565b60405180910390fd5b6001600360006101000a81548160ff021916908315150217905550565b7f000000000000000000000000000000000000000000000000000000000000000081565b60008054906101000a900473ffffffffffffffffffffffffffffffffffffffff1681565b600080fd5b600080fd5b6000819050919050565b61082681610813565b811461083157600080fd5b50565b6000813590506108438161081d565b92915050565b60006020828403121561085f5761085e610809565b5b600061086d84828501610834565b91505092915050565b61087f81610813565b82525050565b600060408201905061089a6000830185610876565b6108a76020830184610876565b9392505050565b600081519050919050565b600082825260208201905092915050565b6000819050602082019050919050565b6108e381610813565b82525050565b60006108f583836108da565b60208301905092915050565b6000602082019050919050565b6000610919826108ae565b61092381856108b9565b935061092e836108ca565b8060005b8381101561095f57815161094688826108e9565b975061095183610901565b925050600181019050610932565b5085935050505092915050565b60006040820190508181036000830152610986818561090e565b9050818103602083015261099a818461090e565b90509392505050565b600080fd5b600080fd5b600080fd5b60008083601f8401126109c8576109c76109a3565b5b8235905067ffffffffffffffff8111156109e5576109e46109a8565b5b602083019150836020820283011115610a0157610a006109ad565b5b9250929050565b60008060008060408587031215610a2257610a21610809565b5b600085013567ffffffffffffffff811115610a4057610a3f61080e565b5b610a4c878288016109b2565b9450945050602085013567ffffffffffffffff811115610a6f57610a6e61080e565b5b610a7b878288016109b2565b925092505092959194509250565b6000602082019050610a9e6000830184610876565b92915050565b60008115159050919050565b610ab981610aa4565b82525050565b6000602082019050610ad46000830184610ab0565b92915050565b600073ffffffffffffffffffffffffffffffffffffffff82169050919050565b6000610b0582610ada565b9050919050565b610b1581610afa565b8114610b2057600080fd5b50565b600081359050610b3281610b0c565b92915050565b600060208284031215610b4e57610b4d610809565b5b6000610b5c84828501610b23565b91505092915050565b610b6e81610afa565b82525050565b6000602082019050610b896000830184610b65565b92915050565b600082825260208201905092915050565b7f566f74696e67206e6f7420656e64656400000000000000000000000000000000600082015250565b6000610bd6601083610b8f565b9150610be182610ba0565b602082019050919050565b60006020820190508181036000830152610c0581610bc9565b9050919050565b7f4e487b7100000000000000000000000000000000000000000000000000000000600052604160045260246000fd5b7f4e487b7100000000000000000000000000000000000000000000000000000000600052603260045260246000fd5b7f4e487b7100000000000000000000000000000000000000000000000000000000600052601160045260246000fd5b6000610ca482610813565b91507fffffffffffffffffffffffffffffffffffffffffffffffffffffffffffffffff8203610cd657610cd5610c6a565b5b600182019050919050565b7f566f74696e6720656e6465640000000000000000000000000000000000000000600082015250565b6000610d17600c83610b8f565b9150610d2282610ce1565b602082019050919050565b60006020820190508181036000830152610d4681610d0a565b9050919050565b7f416c726561647920766f74656400000000000000000000000000000000000000600082015250565b6000610d83600d83610b8f565b9150610d8e82610d4d565b602082019050919050565b60006020820190508181036000830152610db281610d76565b9050919050565b7f496e76616c696420633120646174610000000000000000000000000000000000600082015250565b6000610def600f83610b8f565b9150610dfa82610db9565b602082019050919050565b60006020820190508181036000830152610e1e81610de2565b9050919050565b7f496e76616c696420633220646174610000000000000000000000000000000000600082015250565b6000610e5b600f83610b8f565b9150610e6682610e25565b602082019050919050565b60006020820190508181036000830152610e8a81610e4e565b9050919050565b7f4e487b7100000000000000000000000000000000000000000000000000000000600052601260045260246000fd5b7f41646d696e206f6e6c7900000000000000000000000000000000000000000000600082015250565b6000610ef6600a83610b8f565b9150610f0182610ec0565b602082019050919050565b60006020820190508181036000830152610f2581610ee9565b905091905056fea264697066735822122080c5359adb20ab2b739a667800137c6d37172c03cb04ef7fa0e8251f06e9c27c64736f6c63430008130033",
    "linkReferences": {},
    "deployedLinkReferences": {}
}