{
  "_format": "hh-sol-artifact-1",
  "contractName": "EncryptedVoting",
  "sourceName": "contracts/Voting.sol",
  "abi": [
    {
      "inputs": [
        {
          "internalType": "string[]",
          "name": "_names",
          "type": "string[]"
        },
        {
          "internalType": "string[]",
          "name": "_descriptions",
          "type": "string[]"
        },
        {
          "internalType": "uint256",
          "name": "_p",
          "type": "uint256"
        },
        {
          "internalType": "uint256",
          "name": "_g",
          "type": "uint256"
        },
        {
          "internalType": "address[]",
          "name": "_predefinedWhitelist",
          "type": "address[]"
        }
      ],
      "stateMutability": "nonpayable",
      "type": "constructor"
    },
    {
      "anonymous": false,
      "inputs": [
        {
          "indexed": true,
          "internalType": "uint256",
          "name": "candidateId",
          "type": "uint256"
        },
        {
          "indexed": false,
          "internalType": "string",
          "name": "name",
          "type": "string"
        },
        {
          "indexed": false,
          "internalType": "string",
          "name": "description",
          "type": "string"
        }
      ],
      "name": "CandidateAdded",
      "type": "event"
    },
    {
      "anonymous": false,
      "inputs": [
        {
          "indexed": true,
          "internalType": "uint256",
          "name": "proposalId",
          "type": "uint256"
        },
        {
          "indexed": false,
          "internalType": "string",
          "name": "description",
          "type": "string"
        }
      ],
      "name": "ProposalCreated",
      "type": "event"
    },
    {
      "anonymous": false,
      "inputs": [
        {
          "indexed": true,
          "internalType": "uint256",
          "name": "proposalId",
          "type": "uint256"
        }
      ],
      "name": "ProposalExecuted",
      "type": "event"
    },
    {
      "anonymous": false,
      "inputs": [
        {
          "indexed": true,
          "internalType": "address",
          "name": "voter",
          "type": "address"
        },
        {
          "indexed": false,
          "internalType": "uint256",
          "name": "timestamp",
          "type": "uint256"
        },
        {
          "indexed": false,
          "internalType": "uint256[]",
          "name": "c1List",
          "type": "uint256[]"
        },
        {
          "indexed": false,
          "internalType": "uint256[]",
          "name": "c2List",
          "type": "uint256[]"
        }
      ],
      "name": "Voted",
      "type": "event"
    },
    {
      "anonymous": false,
      "inputs": [
        {
          "indexed": true,
          "internalType": "address",
          "name": "voter",
          "type": "address"
        },
        {
          "indexed": true,
          "internalType": "uint256",
          "name": "proposalId",
          "type": "uint256"
        }
      ],
      "name": "VotedOnProposal",
      "type": "event"
    },
    {
      "inputs": [],
      "name": "MIN_VOTES_TO_PASS",
      "outputs": [
        {
          "internalType": "uint256",
          "name": "",
          "type": "uint256"
        }
      ],
      "stateMutability": "view",
      "type": "function"
    },
    {
      "inputs": [
        {
          "internalType": "address",
          "name": "_address",
          "type": "address"
        }
      ],
      "name": "addToWhitelist",
      "outputs": [],
      "stateMutability": "nonpayable",
      "type": "function"
    },
    {
      "inputs": [],
      "name": "admin",
      "outputs": [
        {
          "internalType": "address",
          "name": "",
          "type": "address"
        }
      ],
      "stateMutability": "view",
      "type": "function"
    },
    {
      "inputs": [
        {
          "internalType": "uint256",
          "name": "",
          "type": "uint256"
        }
      ],
      "name": "candidates",
      "outputs": [
        {
          "internalType": "string",
          "name": "name",
          "type": "string"
        },
        {
          "internalType": "string",
          "name": "description",
          "type": "string"
        },
        {
          "internalType": "uint256",
          "name": "c1",
          "type": "uint256"
        },
        {
          "internalType": "uint256",
          "name": "c2",
          "type": "uint256"
        }
      ],
      "stateMutability": "view",
      "type": "function"
    },
    {
      "inputs": [
        {
          "internalType": "string",
          "name": "_description",
          "type": "string"
        }
      ],
      "name": "createProposal",
      "outputs": [],
      "stateMutability": "nonpayable",
      "type": "function"
    },
    {
      "inputs": [],
      "name": "endVoting",
      "outputs": [],
      "stateMutability": "nonpayable",
      "type": "function"
    },
    {
      "inputs": [
        {
          "internalType": "uint256",
          "name": "_proposalId",
          "type": "uint256"
        }
      ],
      "name": "executeProposal",
      "outputs": [],
      "stateMutability": "nonpayable",
      "type": "function"
    },
    {
      "inputs": [],
      "name": "g",
      "outputs": [
        {
          "internalType": "uint256",
          "name": "",
          "type": "uint256"
        }
      ],
      "stateMutability": "view",
      "type": "function"
    },
    {
      "inputs": [],
      "name": "getCandidateCount",
      "outputs": [
        {
          "internalType": "uint256",
          "name": "",
          "type": "uint256"
        }
      ],
      "stateMutability": "view",
      "type": "function"
    },
    {
      "inputs": [
        {
          "internalType": "uint256",
          "name": "_candidateId",
          "type": "uint256"
        }
      ],
      "name": "getCandidateInfo",
      "outputs": [
        {
          "internalType": "string",
          "name": "name",
          "type": "string"
        },
        {
          "internalType": "string",
          "name": "description",
          "type": "string"
        },
        {
          "internalType": "uint256",
          "name": "c1",
          "type": "uint256"
        },
        {
          "internalType": "uint256",
          "name": "c2",
          "type": "uint256"
        }
      ],
      "stateMutability": "view",
      "type": "function"
    },
    {
      "inputs": [],
      "name": "getProposalCount",
      "outputs": [
        {
          "internalType": "uint256",
          "name": "",
          "type": "uint256"
        }
      ],
      "stateMutability": "view",
      "type": "function"
    },
    {
      "inputs": [
        {
          "internalType": "uint256",
          "name": "_proposalId",
          "type": "uint256"
        }
      ],
      "name": "getProposalInfo",
      "outputs": [
        {
          "internalType": "string",
          "name": "description",
          "type": "string"
        },
        {
          "internalType": "uint256",
          "name": "voteCount",
          "type": "uint256"
        },
        {
          "internalType": "bool",
          "name": "executed",
          "type": "bool"
        }
      ],
      "stateMutability": "view",
      "type": "function"
    },
    {
      "inputs": [],
      "name": "getResults",
      "outputs": [
        {
          "internalType": "uint256[]",
          "name": "",
          "type": "uint256[]"
        },
        {
          "internalType": "uint256[]",
          "name": "",
          "type": "uint256[]"
        }
      ],
      "stateMutability": "view",
      "type": "function"
    },
    {
      "inputs": [],
      "name": "p",
      "outputs": [
        {
          "internalType": "uint256",
          "name": "",
          "type": "uint256"
        }
      ],
      "stateMutability": "view",
      "type": "function"
    },
    {
      "inputs": [
        {
          "internalType": "uint256",
          "name": "",
          "type": "uint256"
        }
      ],
      "name": "proposals",
      "outputs": [
        {
          "internalType": "string",
          "name": "description",
          "type": "string"
        },
        {
          "internalType": "uint256",
          "name": "voteCount",
          "type": "uint256"
        },
        {
          "internalType": "bool",
          "name": "executed",
          "type": "bool"
        }
      ],
      "stateMutability": "view",
      "type": "function"
    },
    {
      "inputs": [
        {
          "internalType": "address",
          "name": "_address",
          "type": "address"
        }
      ],
      "name": "removeFromWhitelist",
      "outputs": [],
      "stateMutability": "nonpayable",
      "type": "function"
    },
    {
      "inputs": [
        {
          "internalType": "uint256[]",
          "name": "c1List",
          "type": "uint256[]"
        },
        {
          "internalType": "uint256[]",
          "name": "c2List",
          "type": "uint256[]"
        }
      ],
      "name": "vote",
      "outputs": [],
      "stateMutability": "nonpayable",
      "type": "function"
    },
    {
      "inputs": [
        {
          "internalType": "uint256",
          "name": "_proposalId",
          "type": "uint256"
        }
      ],
      "name": "voteOnProposal",
      "outputs": [],
      "stateMutability": "nonpayable",
      "type": "function"
    },
    {
      "inputs": [
        {
          "internalType": "address",
          "name": "",
          "type": "address"
        }
      ],
      "name": "voters",
      "outputs": [
        {
          "internalType": "bool",
          "name": "",
          "type": "bool"
        }
      ],
      "stateMutability": "view",
      "type": "function"
    },
    {
      "inputs": [],
      "name": "votingEnded",
      "outputs": [
        {
          "internalType": "bool",
          "name": "",
          "type": "bool"
        }
      ],
      "stateMutability": "view",
      "type": "function"
    },
    {
      "inputs": [
        {
          "internalType": "address",
          "name": "",
          "type": "address"
        }
      ],
      "name": "whitelist",
      "outputs": [
        {
          "internalType": "bool",
          "name": "",
          "type": "bool"
        }
      ],
      "stateMutability": "view",
      "type": "function"
    }
  ],
  "bytecode": "0x60e06040523480156200001157600080fd5b50604051620039613803806200396183398181016040528101906200003791906200079f565b83518551146200007e576040517f08c379a000000000000000000000000000000000000000000000000000000000815260040162000075906200090b565b60405180910390fd5b6000855111620000c5576040517f08c379a0000000000000000000000000000000000000000000000000000000008152600401620000bc906200097d565b60405180910390fd5b3373ffffffffffffffffffffffffffffffffffffffff1660808173ffffffffffffffffffffffffffffffffffffffff16815250508260a081815250508160c0818152505060005b855181101562000178576200016286828151811062000130576200012f6200099f565b5b60200260200101518683815181106200014e576200014d6200099f565b5b6020026020010151620002b360201b60201c565b80806200016f90620009fd565b9150506200010c565b5060005b8151811015620002a75760008282815181106200019e576200019d6200099f565b5b60200260200101519050600260008273ffffffffffffffffffffffffffffffffffffffff1673ffffffffffffffffffffffffffffffffffffffff16815260200190815260200160002060009054906101000a900460ff161562000238576040517f08c379a00000000000000000000000000000000000000000000000000000000081526004016200022f9062000a9a565b60405180910390fd5b6001600260008373ffffffffffffffffffffffffffffffffffffffff1673ffffffffffffffffffffffffffffffffffffffff16815260200190815260200160002060006101000a81548160ff0219169083151502179055505080806200029e90620009fd565b9150506200017c565b50505050505062000e9b565b600060405180608001604052808481526020018381526020016001815260200160018152509080600181540180825580915050600190039060005260206000209060040201600090919091909150600082015181600001908162000318919062000cfd565b50602082015181600101908162000330919062000cfd565b506040820151816002015560608201518160030155505060016000805490506200035b919062000de4565b7fe64f834082661dd9ed89427b87edb6270fd6dad17198b0938f0edd058914c87f83836040516200038e92919062000e60565b60405180910390a25050565b6000604051905090565b600080fd5b600080fd5b600080fd5b6000601f19601f8301169050919050565b7f4e487b7100000000000000000000000000000000000000000000000000000000600052604160045260246000fd5b620003fe82620003b3565b810181811067ffffffffffffffff8211171562000420576200041f620003c4565b5b80604052505050565b6000620004356200039a565b9050620004438282620003f3565b919050565b600067ffffffffffffffff821115620004665762000465620003c4565b5b602082029050602081019050919050565b600080fd5b600080fd5b600067ffffffffffffffff8211156200049f576200049e620003c4565b5b620004aa82620003b3565b9050602081019050919050565b60005b83811015620004d7578082015181840152602081019050620004ba565b60008484015250505050565b6000620004fa620004f48462000481565b62000429565b9050828152602081018484840111156200051957620005186200047c565b5b62000526848285620004b7565b509392505050565b600082601f830112620005465762000545620003ae565b5b815162000558848260208601620004e3565b91505092915050565b600062000578620005728462000448565b62000429565b905080838252602082019050602084028301858111156200059e576200059d62000477565b5b835b81811015620005ec57805167ffffffffffffffff811115620005c757620005c6620003ae565b5b808601620005d689826200052e565b85526020850194505050602081019050620005a0565b5050509392505050565b600082601f8301126200060e576200060d620003ae565b5b81516200062084826020860162000561565b91505092915050565b6000819050919050565b6200063e8162000629565b81146200064a57600080fd5b50565b6000815190506200065e8162000633565b92915050565b600067ffffffffffffffff821115620006825762000681620003c4565b5b602082029050602081019050919050565b600073ffffffffffffffffffffffffffffffffffffffff82169050919050565b6000620006c08262000693565b9050919050565b620006d281620006b3565b8114620006de57600080fd5b50565b600081519050620006f281620006c7565b92915050565b60006200070f620007098462000664565b62000429565b9050808382526020820190506020840283018581111562000735576200073462000477565b5b835b818110156200076257806200074d8882620006e1565b84526020840193505060208101905062000737565b5050509392505050565b600082601f830112620007845762000783620003ae565b5b815162000796848260208601620006f8565b91505092915050565b600080600080600060a08688031215620007be57620007bd620003a4565b5b600086015167ffffffffffffffff811115620007df57620007de620003a9565b5b620007ed88828901620005f6565b955050602086015167ffffffffffffffff811115620008115762000810620003a9565b5b6200081f88828901620005f6565b945050604062000832888289016200064d565b935050606062000845888289016200064d565b925050608086015167ffffffffffffffff811115620008695762000868620003a9565b5b62000877888289016200076c565b9150509295509295909350565b600082825260208201905092915050565b7f4e616d6520616e64206465736372697074696f6e206172726179206d69736d6160008201527f7463680000000000000000000000000000000000000000000000000000000000602082015250565b6000620008f360238362000884565b9150620009008262000895565b604082019050919050565b600060208201905081810360008301526200092681620008e4565b9050919050565b7f4174206c65617374206f6e652063616e64696461746520726571756972656400600082015250565b600062000965601f8362000884565b915062000972826200092d565b602082019050919050565b60006020820190508181036000830152620009988162000956565b9050919050565b7f4e487b7100000000000000000000000000000000000000000000000000000000600052603260045260246000fd5b7f4e487b7100000000000000000000000000000000000000000000000000000000600052601160045260246000fd5b600062000a0a8262000629565b91507fffffffffffffffffffffffffffffffffffffffffffffffffffffffffffffffff820362000a3f5762000a3e620009ce565b5b600182019050919050565b7f4475706c6963617465206164647265737320696e2077686974656c6973740000600082015250565b600062000a82601e8362000884565b915062000a8f8262000a4a565b602082019050919050565b6000602082019050818103600083015262000ab58162000a73565b9050919050565b600081519050919050565b7f4e487b7100000000000000000000000000000000000000000000000000000000600052602260045260246000fd5b6000600282049050600182168062000b0f57607f821691505b60208210810362000b255762000b2462000ac7565b5b50919050565b60008190508160005260206000209050919050565b60006020601f8301049050919050565b600082821b905092915050565b60006008830262000b8f7fffffffffffffffffffffffffffffffffffffffffffffffffffffffffffffffff8262000b50565b62000b9b868362000b50565b95508019841693508086168417925050509392505050565b6000819050919050565b600062000bde62000bd862000bd28462000629565b62000bb3565b62000629565b9050919050565b6000819050919050565b62000bfa8362000bbd565b62000c1262000c098262000be5565b84845462000b5d565b825550505050565b600090565b62000c2962000c1a565b62000c3681848462000bef565b505050565b5b8181101562000c5e5762000c5260008262000c1f565b60018101905062000c3c565b5050565b601f82111562000cad5762000c778162000b2b565b62000c828462000b40565b8101602085101562000c92578190505b62000caa62000ca18562000b40565b83018262000c3b565b50505b505050565b600082821c905092915050565b600062000cd26000198460080262000cb2565b1980831691505092915050565b600062000ced838362000cbf565b9150826002028217905092915050565b62000d088262000abc565b67ffffffffffffffff81111562000d245762000d23620003c4565b5b62000d30825462000af6565b62000d3d82828562000c62565b600060209050601f83116001811462000d75576000841562000d60578287015190505b62000d6c858262000cdf565b86555062000ddc565b601f19841662000d858662000b2b565b60005b8281101562000daf5784890151825560018201915060208501945060208101905062000d88565b8683101562000dcf578489015162000dcb601f89168262000cbf565b8355505b6001600288020188555050505b505050505050565b600062000df18262000629565b915062000dfe8362000629565b925082820390508181111562000e195762000e18620009ce565b5b92915050565b600062000e2c8262000abc565b62000e38818562000884565b935062000e4a818560208601620004b7565b62000e5581620003b3565b840191505092915050565b6000604082019050818103600083015262000e7c818562000e1f565b9050818103602083015262000e92818462000e1f565b90509392505050565b60805160a05160c051612a6562000efc600039600061179a015260008181610ee901528181610f8201526112570152600081816104da015281816109c7015281816110e2015281816116ef015281816117be01526119340152612a656000f3fe608060405234801561001057600080fd5b50600436106101375760003560e01c80639b19251a116100b8578063bc903cb81161007c578063bc903cb814610357578063c08cc02d14610389578063c3403ddf146103a7578063e2179b8e146103b1578063e43252d7146103cf578063f851a440146103eb57610137565b80639b19251a1461029f5780639d5a0529146102cf578063a3ec138d146102ed578063add68edc1461031d578063b79661f21461033957610137565b806349c2a1a6116100ff57806349c2a1a6146101fa57806370f67cfe146102165780638733ece7146102495780638ab1d681146102655780639ae8886a1461028157610137565b8063013cf08b1461013c5780630d61b5191461016e57806330a563471461018a5780633477ee2e146101a85780634717f97c146101db575b600080fd5b610156600480360381019061015191906119a0565b610409565b60405161016593929190611a87565b60405180910390f35b610188600480360381019061018391906119a0565b6104d8565b005b6101926106bb565b60405161019f9190611ac5565b60405180910390f35b6101c260048036038101906101bd91906119a0565b6106c7565b6040516101d29493929190611ae0565b60405180910390f35b6101e3610817565b6040516101f1929190611bf1565b60405180910390f35b610214600480360381019061020f9190611d5d565b6109c5565b005b610230600480360381019061022b91906119a0565b610b2e565b6040516102409493929190611ae0565b60405180910390f35b610263600480360381019061025e9190611e06565b610cda565b005b61027f600480360381019061027a9190611ee5565b6110e0565b005b610289611255565b6040516102969190611ac5565b60405180910390f35b6102b960048036038101906102b49190611ee5565b611279565b6040516102c69190611f12565b60405180910390f35b6102d7611299565b6040516102e49190611f12565b60405180910390f35b61030760048036038101906103029190611ee5565b6112ac565b6040516103149190611f12565b60405180910390f35b610337600480360381019061033291906119a0565b6112cc565b005b6103416115b4565b60405161034e9190611ac5565b60405180910390f35b610371600480360381019061036c91906119a0565b6115b9565b60405161038093929190611a87565b60405180910390f35b6103916116e0565b60405161039e9190611ac5565b60405180910390f35b6103af6116ed565b005b6103b9611798565b6040516103c69190611ac5565b60405180910390f35b6103e960048036038101906103e49190611ee5565b6117bc565b005b6103f3611932565b6040516104009190611f3c565b60405180910390f35b6004818154811061041957600080fd5b906000526020600020906004020160009150905080600001805461043c90611f86565b80601f016020809104026020016040519081016040528092919081815260200182805461046890611f86565b80156104b55780601f1061048a576101008083540402835291602001916104b5565b820191906000526020600020905b81548152906001019060200180831161049857829003601f168201915b5050505050908060010154908060030160009054906101000a900460ff16905083565b7f000000000000000000000000000000000000000000000000000000000000000073ffffffffffffffffffffffffffffffffffffffff163373ffffffffffffffffffffffffffffffffffffffff1614610566576040517f08c379a000000000000000000000000000000000000000000000000000000000815260040161055d90612003565b60405180910390fd5b60048054905081106105ad576040517f08c379a00000000000000000000000000000000000000000000000000000000081526004016105a49061206f565b60405180910390fd5b6000600482815481106105c3576105c261208f565b5b9060005260206000209060040201905060038160010154101561061b576040517f08c379a00000000000000000000000000000000000000000000000000000000081526004016106129061210a565b60405180910390fd5b8060030160009054906101000a900460ff161561066d576040517f08c379a000000000000000000000000000000000000000000000000000000000815260040161066490612176565b60405180910390fd5b60018160030160006101000a81548160ff021916908315150217905550817f712ae1383f79ac853f8d882153778e0260ef8f03b504e2866e0593e04d2b291f60405160405180910390a25050565b60008080549050905090565b600081815481106106d757600080fd5b90600052602060002090600402016000915090508060000180546106fa90611f86565b80601f016020809104026020016040519081016040528092919081815260200182805461072690611f86565b80156107735780601f1061074857610100808354040283529160200191610773565b820191906000526020600020905b81548152906001019060200180831161075657829003601f168201915b50505050509080600101805461078890611f86565b80601f01602080910402602001604051908101604052809291908181526020018280546107b490611f86565b80156108015780601f106107d657610100808354040283529160200191610801565b820191906000526020600020905b8154815290600101906020018083116107e457829003601f168201915b5050505050908060020154908060030154905084565b606080600360009054906101000a900460ff16610869576040517f08c379a0000000000000000000000000000000000000000000000000000000008152600401610860906121e2565b60405180910390fd5b6000808054905067ffffffffffffffff81111561088957610888611c32565b5b6040519080825280602002602001820160405280156108b75781602001602082028036833780820191505090505b5090506000808054905067ffffffffffffffff8111156108da576108d9611c32565b5b6040519080825280602002602001820160405280156109085781602001602082028036833780820191505090505b50905060005b6000805490508110156109b8576000818154811061092f5761092e61208f565b5b9060005260206000209060040201600201548382815181106109545761095361208f565b5b602002602001018181525050600081815481106109745761097361208f565b5b9060005260206000209060040201600301548282815181106109995761099861208f565b5b60200260200101818152505080806109b090612231565b91505061090e565b5081819350935050509091565b7f000000000000000000000000000000000000000000000000000000000000000073ffffffffffffffffffffffffffffffffffffffff163373ffffffffffffffffffffffffffffffffffffffff1614610a53576040517f08c379a0000000000000000000000000000000000000000000000000000000008152600401610a4a90612003565b60405180910390fd5b600460018160018154018082558091505003906000526020600020905050600060046001600480549050610a879190612279565b81548110610a9857610a9761208f565b5b9060005260206000209060040201905081816000019081610ab99190612459565b506000816001018190555060008160030160006101000a81548160ff0219169083151502179055506001600480549050610af39190612279565b7f9c770c289ab5bf7e57cb1d23c8ceae993aea46eb64847072fd3d78ca60d3e43283604051610b22919061252b565b60405180910390a25050565b6060806000806000805490508510610b7b576040517f08c379a0000000000000000000000000000000000000000000000000000000008152600401610b7290612599565b60405180910390fd5b6000808681548110610b9057610b8f61208f565b5b90600052602060002090600402019050806000018160010182600201548360030154838054610bbe90611f86565b80601f0160208091040260200160405190810160405280929190818152602001828054610bea90611f86565b8015610c375780601f10610c0c57610100808354040283529160200191610c37565b820191906000526020600020905b815481529060010190602001808311610c1a57829003601f168201915b50505050509350828054610c4a90611f86565b80601f0160208091040260200160405190810160405280929190818152602001828054610c7690611f86565b8015610cc35780601f10610c9857610100808354040283529160200191610cc3565b820191906000526020600020905b815481529060010190602001808311610ca657829003601f168201915b505050505092509450945094509450509193509193565b600360009054906101000a900460ff1615610d2a576040517f08c379a0000000000000000000000000000000000000000000000000000000008152600401610d2190612605565b60405180910390fd5b600260003373ffffffffffffffffffffffffffffffffffffffff1673ffffffffffffffffffffffffffffffffffffffff16815260200190815260200160002060009054906101000a900460ff16610db6576040517f08c379a0000000000000000000000000000000000000000000000000000000008152600401610dad90612671565b60405180910390fd5b600160003373ffffffffffffffffffffffffffffffffffffffff1673ffffffffffffffffffffffffffffffffffffffff16815260200190815260200160002060009054906101000a900460ff1615610e43576040517f08c379a0000000000000000000000000000000000000000000000000000000008152600401610e3a906126dd565b60405180910390fd5b6000805490508484905014610e8d576040517f08c379a0000000000000000000000000000000000000000000000000000000008152600401610e8490612749565b60405180910390fd5b6000805490508282905014610ed7576040517f08c379a0000000000000000000000000000000000000000000000000000000008152600401610ece906127b5565b60405180910390fd5b60005b60008054905081101561102c577f000000000000000000000000000000000000000000000000000000000000000080610f1657610f156127d5565b5b858583818110610f2957610f2861208f565b5b9050602002013560008381548110610f4457610f4361208f565b5b9060005260206000209060040201600201540960008281548110610f6b57610f6a61208f565b5b9060005260206000209060040201600201819055507f000000000000000000000000000000000000000000000000000000000000000080610faf57610fae6127d5565b5b838383818110610fc257610fc161208f565b5b9050602002013560008381548110610fdd57610fdc61208f565b5b90600052602060002090600402016003015409600082815481106110045761100361208f565b5b906000526020600020906004020160030181905550808061102490612231565b915050610eda565b5060018060003373ffffffffffffffffffffffffffffffffffffffff1673ffffffffffffffffffffffffffffffffffffffff16815260200190815260200160002060006101000a81548160ff0219169083151502179055503373ffffffffffffffffffffffffffffffffffffffff167f41fb36d1e99d43c90f7c97533fdb06ff412d7ce8ef97b5b36c59c711d29e7c8442868686866040516110d295949392919061286e565b60405180910390a250505050565b7f000000000000000000000000000000000000000000000000000000000000000073ffffffffffffffffffffffffffffffffffffffff163373ffffffffffffffffffffffffffffffffffffffff161461116e576040517f08c379a000000000000000000000000000000000000000000000000000000000815260040161116590612003565b60405180910390fd5b600260008273ffffffffffffffffffffffffffffffffffffffff1673ffffffffffffffffffffffffffffffffffffffff16815260200190815260200160002060009054906101000a900460ff166111fa576040517f08c379a00000000000000000000000000000000000000000000000000000000081526004016111f190612903565b60405180910390fd5b6000600260008373ffffffffffffffffffffffffffffffffffffffff1673ffffffffffffffffffffffffffffffffffffffff16815260200190815260200160002060006101000a81548160ff02191690831515021790555050565b7f000000000000000000000000000000000000000000000000000000000000000081565b60026020528060005260406000206000915054906101000a900460ff1681565b600360009054906101000a900460ff1681565b60016020528060005260406000206000915054906101000a900460ff1681565b6004805490508110611313576040517f08c379a000000000000000000000000000000000000000000000000000000000815260040161130a9061206f565b60405180910390fd5b600260003373ffffffffffffffffffffffffffffffffffffffff1673ffffffffffffffffffffffffffffffffffffffff16815260200190815260200160002060009054906101000a900460ff1661139f576040517f08c379a000000000000000000000000000000000000000000000000000000000815260040161139690612671565b60405180910390fd5b600360009054906101000a900460ff16156113ef576040517f08c379a00000000000000000000000000000000000000000000000000000000081526004016113e690612605565b60405180910390fd5b6000600482815481106114055761140461208f565b5b906000526020600020906004020190508060020160003373ffffffffffffffffffffffffffffffffffffffff1673ffffffffffffffffffffffffffffffffffffffff16815260200190815260200160002060009054906101000a900460ff16156114a4576040517f08c379a000000000000000000000000000000000000000000000000000000000815260040161149b906126dd565b60405180910390fd5b8060030160009054906101000a900460ff16156114f6576040517f08c379a00000000000000000000000000000000000000000000000000000000081526004016114ed9061296f565b60405180910390fd5b60018160020160003373ffffffffffffffffffffffffffffffffffffffff1673ffffffffffffffffffffffffffffffffffffffff16815260200190815260200160002060006101000a81548160ff0219169083151502179055506001816001016000828254611565919061298f565b92505081905550813373ffffffffffffffffffffffffffffffffffffffff167f7beb076843add23a2e6140ca0ee1da52348c89b3507a234e985aebd42cdce91d60405160405180910390a35050565b600381565b60606000806004805490508410611605576040517f08c379a00000000000000000000000000000000000000000000000000000000081526004016115fc9061206f565b60405180910390fd5b60006004858154811061161b5761161a61208f565b5b906000526020600020906004020190508060000181600101548260030160009054906101000a900460ff1682805461165290611f86565b80601f016020809104026020016040519081016040528092919081815260200182805461167e90611f86565b80156116cb5780601f106116a0576101008083540402835291602001916116cb565b820191906000526020600020905b8154815290600101906020018083116116ae57829003601f168201915b50505050509250935093509350509193909250565b6000600480549050905090565b7f000000000000000000000000000000000000000000000000000000000000000073ffffffffffffffffffffffffffffffffffffffff163373ffffffffffffffffffffffffffffffffffffffff161461177b576040517f08c379a000000000000000000000000000000000000000000000000000000000815260040161177290612003565b60405180910390fd5b6001600360006101000a81548160ff021916908315150217905550565b7f000000000000000000000000000000000000000000000000000000000000000081565b7f000000000000000000000000000000000000000000000000000000000000000073ffffffffffffffffffffffffffffffffffffffff163373ffffffffffffffffffffffffffffffffffffffff161461184a576040517f08c379a000000000000000000000000000000000000000000000000000000000815260040161184190612003565b60405180910390fd5b600260008273ffffffffffffffffffffffffffffffffffffffff1673ffffffffffffffffffffffffffffffffffffffff16815260200190815260200160002060009054906101000a900460ff16156118d7576040517f08c379a00000000000000000000000000000000000000000000000000000000081526004016118ce90612a0f565b60405180910390fd5b6001600260008373ffffffffffffffffffffffffffffffffffffffff1673ffffffffffffffffffffffffffffffffffffffff16815260200190815260200160002060006101000a81548160ff02191690831515021790555050565b7f000000000000000000000000000000000000000000000000000000000000000081565b6000604051905090565b600080fd5b600080fd5b6000819050919050565b61197d8161196a565b811461198857600080fd5b50565b60008135905061199a81611974565b92915050565b6000602082840312156119b6576119b5611960565b5b60006119c48482850161198b565b91505092915050565b600081519050919050565b600082825260208201905092915050565b60005b83811015611a075780820151818401526020810190506119ec565b60008484015250505050565b6000601f19601f8301169050919050565b6000611a2f826119cd565b611a3981856119d8565b9350611a498185602086016119e9565b611a5281611a13565b840191505092915050565b611a668161196a565b82525050565b60008115159050919050565b611a8181611a6c565b82525050565b60006060820190508181036000830152611aa18186611a24565b9050611ab06020830185611a5d565b611abd6040830184611a78565b949350505050565b6000602082019050611ada6000830184611a5d565b92915050565b60006080820190508181036000830152611afa8187611a24565b90508181036020830152611b0e8186611a24565b9050611b1d6040830185611a5d565b611b2a6060830184611a5d565b95945050505050565b600081519050919050565b600082825260208201905092915050565b6000819050602082019050919050565b611b688161196a565b82525050565b6000611b7a8383611b5f565b60208301905092915050565b6000602082019050919050565b6000611b9e82611b33565b611ba88185611b3e565b9350611bb383611b4f565b8060005b83811015611be4578151611bcb8882611b6e565b9750611bd683611b86565b925050600181019050611bb7565b5085935050505092915050565b60006040820190508181036000830152611c0b8185611b93565b90508181036020830152611c1f8184611b93565b90509392505050565b600080fd5b600080fd5b7f4e487b7100000000000000000000000000000000000000000000000000000000600052604160045260246000fd5b611c6a82611a13565b810181811067ffffffffffffffff82111715611c8957611c88611c32565b5b80604052505050565b6000611c9c611956565b9050611ca88282611c61565b919050565b600067ffffffffffffffff821115611cc857611cc7611c32565b5b611cd182611a13565b9050602081019050919050565b82818337600083830152505050565b6000611d00611cfb84611cad565b611c92565b905082815260208101848484011115611d1c57611d1b611c2d565b5b611d27848285611cde565b509392505050565b600082601f830112611d4457611d43611c28565b5b8135611d54848260208601611ced565b91505092915050565b600060208284031215611d7357611d72611960565b5b600082013567ffffffffffffffff811115611d9157611d90611965565b5b611d9d84828501611d2f565b91505092915050565b600080fd5b600080fd5b60008083601f840112611dc657611dc5611c28565b5b8235905067ffffffffffffffff811115611de357611de2611da6565b5b602083019150836020820283011115611dff57611dfe611dab565b5b9250929050565b60008060008060408587031215611e2057611e1f611960565b5b600085013567ffffffffffffffff811115611e3e57611e3d611965565b5b611e4a87828801611db0565b9450945050602085013567ffffffffffffffff811115611e6d57611e6c611965565b5b611e7987828801611db0565b925092505092959194509250565b600073ffffffffffffffffffffffffffffffffffffffff82169050919050565b6000611eb282611e87565b9050919050565b611ec281611ea7565b8114611ecd57600080fd5b50565b600081359050611edf81611eb9565b92915050565b600060208284031215611efb57611efa611960565b5b6000611f0984828501611ed0565b91505092915050565b6000602082019050611f276000830184611a78565b92915050565b611f3681611ea7565b82525050565b6000602082019050611f516000830184611f2d565b92915050565b7f4e487b7100000000000000000000000000000000000000000000000000000000600052602260045260246000fd5b60006002820490506001821680611f9e57607f821691505b602082108103611fb157611fb0611f57565b5b50919050565b7f41646d696e206f6e6c7900000000000000000000000000000000000000000000600082015250565b6000611fed600a836119d8565b9150611ff882611fb7565b602082019050919050565b6000602082019050818103600083015261201c81611fe0565b9050919050565b7f496e76616c69642070726f706f73616c20494400000000000000000000000000600082015250565b60006120596013836119d8565b915061206482612023565b602082019050919050565b600060208201905081810360008301526120888161204c565b9050919050565b7f4e487b7100000000000000000000000000000000000000000000000000000000600052603260045260246000fd5b7f4e6f7420656e6f75676820766f74657300000000000000000000000000000000600082015250565b60006120f46010836119d8565b91506120ff826120be565b602082019050919050565b60006020820190508181036000830152612123816120e7565b9050919050565b7f416c726561647920657865637574656400000000000000000000000000000000600082015250565b60006121606010836119d8565b915061216b8261212a565b602082019050919050565b6000602082019050818103600083015261218f81612153565b9050919050565b7f566f74696e67206e6f7420656e64656400000000000000000000000000000000600082015250565b60006121cc6010836119d8565b91506121d782612196565b602082019050919050565b600060208201905081810360008301526121fb816121bf565b9050919050565b7f4e487b7100000000000000000000000000000000000000000000000000000000600052601160045260246000fd5b600061223c8261196a565b91507fffffffffffffffffffffffffffffffffffffffffffffffffffffffffffffffff820361226e5761226d612202565b5b600182019050919050565b60006122848261196a565b915061228f8361196a565b92508282039050818111156122a7576122a6612202565b5b92915050565b60008190508160005260206000209050919050565b60006020601f8301049050919050565b600082821b905092915050565b60006008830261230f7fffffffffffffffffffffffffffffffffffffffffffffffffffffffffffffffff826122d2565b61231986836122d2565b95508019841693508086168417925050509392505050565b6000819050919050565b600061235661235161234c8461196a565b612331565b61196a565b9050919050565b6000819050919050565b6123708361233b565b61238461237c8261235d565b8484546122df565b825550505050565b600090565b61239961238c565b6123a4818484612367565b505050565b5b818110156123c8576123bd600082612391565b6001810190506123aa565b5050565b601f82111561240d576123de816122ad565b6123e7846122c2565b810160208510156123f6578190505b61240a612402856122c2565b8301826123a9565b50505b505050565b600082821c905092915050565b600061243060001984600802612412565b1980831691505092915050565b6000612449838361241f565b9150826002028217905092915050565b612462826119cd565b67ffffffffffffffff81111561247b5761247a611c32565b5b6124858254611f86565b6124908282856123cc565b600060209050601f8311600181146124c357600084156124b1578287015190505b6124bb858261243d565b865550612523565b601f1984166124d1866122ad565b60005b828110156124f9578489015182556001820191506020850194506020810190506124d4565b868310156125165784890151612512601f89168261241f565b8355505b6001600288020188555050505b505050505050565b600060208201905081810360008301526125458184611a24565b905092915050565b7f496e76616c69642063616e646964617465204944000000000000000000000000600082015250565b60006125836014836119d8565b915061258e8261254d565b602082019050919050565b600060208201905081810360008301526125b281612576565b9050919050565b7f566f74696e6720656e6465640000000000000000000000000000000000000000600082015250565b60006125ef600c836119d8565b91506125fa826125b9565b602082019050919050565b6000602082019050818103600083015261261e816125e2565b9050919050565b7f4e6f7420696e2077686974656c69737400000000000000000000000000000000600082015250565b600061265b6010836119d8565b915061266682612625565b602082019050919050565b6000602082019050818103600083015261268a8161264e565b9050919050565b7f416c726561647920766f74656400000000000000000000000000000000000000600082015250565b60006126c7600d836119d8565b91506126d282612691565b602082019050919050565b600060208201905081810360008301526126f6816126ba565b9050919050565b7f496e76616c696420633120646174610000000000000000000000000000000000600082015250565b6000612733600f836119d8565b915061273e826126fd565b602082019050919050565b6000602082019050818103600083015261276281612726565b9050919050565b7f496e76616c696420633220646174610000000000000000000000000000000000600082015250565b600061279f600f836119d8565b91506127aa82612769565b602082019050919050565b600060208201905081810360008301526127ce81612792565b9050919050565b7f4e487b7100000000000000000000000000000000000000000000000000000000600052601260045260246000fd5b600080fd5b82818337505050565b600061281e8385611b3e565b93507f07ffffffffffffffffffffffffffffffffffffffffffffffffffffffffffffff83111561285157612850612804565b5b602083029250612862838584612809565b82840190509392505050565b60006060820190506128836000830188611a5d565b8181036020830152612896818688612812565b905081810360408301526128ab818486612812565b90509695505050505050565b7f41646472657373206e6f7420696e2077686974656c6973740000000000000000600082015250565b60006128ed6018836119d8565b91506128f8826128b7565b602082019050919050565b6000602082019050818103600083015261291c816128e0565b9050919050565b7f50726f706f73616c20616c726561647920657865637574656400000000000000600082015250565b60006129596019836119d8565b915061296482612923565b602082019050919050565b600060208201905081810360008301526129888161294c565b9050919050565b600061299a8261196a565b91506129a58361196a565b92508282019050808211156129bd576129bc612202565b5b92915050565b7f4164647265737320616c726561647920696e2077686974656c69737400000000600082015250565b60006129f9601c836119d8565b9150612a04826129c3565b602082019050919050565b60006020820190508181036000830152612a28816129ec565b905091905056fea2646970667358221220c382a4e17fcf1aa0cdfeb4020d8ce4d2e8447be8a25c5f8b8a058f0df105f7b764736f6c63430008130033",
  "linkReferences": {},
  "deployedLinkReferences": {}
}