{
  "_format": "hh-sol-artifact-1",
  "contractName": "EncryptedVoting",
  "sourceName": "contracts/Voting.sol",
  "abi": [
    {
      "inputs": [
        {
          "internalType": "uint256",
          "name": "_candidateCount",
          "type": "uint256"
        },
        {
          "internalType": "uint256",
          "name": "_p",
          "type": "uint256"
        },
        {
          "internalType": "uint256",
          "name": "_g",
          "type": "uint256"
        },
        {
          "internalType": "address[]",
          "name": "_predefinedWhitelist",
          "type": "address[]"
        }
      ],
      "stateMutability": "nonpayable",
      "type": "constructor"
    },
    {
      "anonymous": false,
      "inputs": [
        {
          "indexed": true,
          "internalType": "address",
          "name": "voter",
          "type": "address"
        },
        {
          "indexed": false,
          "internalType": "uint256",
          "name": "timestamp",
          "type": "uint256"
        },
        {
          "indexed": false,
          "internalType": "uint256[]",
          "name": "c1List",
          "type": "uint256[]"
        },
        {
          "indexed": false,
          "internalType": "uint256[]",
          "name": "c2List",
          "type": "uint256[]"
        }
      ],
      "name": "Voted",
      "type": "event"
    },
    {
      "inputs": [
        {
          "internalType": "address",
          "name": "_address",
          "type": "address"
        }
      ],
      "name": "addToWhitelist",
      "outputs": [],
      "stateMutability": "nonpayable",
      "type": "function"
    },
    {
      "inputs": [],
      "name": "admin",
      "outputs": [
        {
          "internalType": "address",
          "name": "",
          "type": "address"
        }
      ],
      "stateMutability": "view",
      "type": "function"
    },
    {
      "inputs": [
        {
          "internalType": "uint256",
          "name": "",
          "type": "uint256"
        }
      ],
      "name": "candidates",
      "outputs": [
        {
          "internalType": "uint256",
          "name": "c1",
          "type": "uint256"
        },
        {
          "internalType": "uint256",
          "name": "c2",
          "type": "uint256"
        }
      ],
      "stateMutability": "view",
      "type": "function"
    },
    {
      "inputs": [],
      "name": "endVoting",
      "outputs": [],
      "stateMutability": "nonpayable",
      "type": "function"
    },
    {
      "inputs": [],
      "name": "g",
      "outputs": [
        {
          "internalType": "uint256",
          "name": "",
          "type": "uint256"
        }
      ],
      "stateMutability": "view",
      "type": "function"
    },
    {
      "inputs": [],
      "name": "getResults",
      "outputs": [
        {
          "internalType": "uint256[]",
          "name": "",
          "type": "uint256[]"
        },
        {
          "internalType": "uint256[]",
          "name": "",
          "type": "uint256[]"
        }
      ],
      "stateMutability": "view",
      "type": "function"
    },
    {
      "inputs": [],
      "name": "p",
      "outputs": [
        {
          "internalType": "uint256",
          "name": "",
          "type": "uint256"
        }
      ],
      "stateMutability": "view",
      "type": "function"
    },
    {
      "inputs": [
        {
          "internalType": "address",
          "name": "_address",
          "type": "address"
        }
      ],
      "name": "removeFromWhitelist",
      "outputs": [],
      "stateMutability": "nonpayable",
      "type": "function"
    },
    {
      "inputs": [
        {
          "internalType": "uint256[]",
          "name": "c1List",
          "type": "uint256[]"
        },
        {
          "internalType": "uint256[]",
          "name": "c2List",
          "type": "uint256[]"
        }
      ],
      "name": "vote",
      "outputs": [],
      "stateMutability": "nonpayable",
      "type": "function"
    },
    {
      "inputs": [
        {
          "internalType": "address",
          "name": "",
          "type": "address"
        }
      ],
      "name": "voters",
      "outputs": [
        {
          "internalType": "bool",
          "name": "",
          "type": "bool"
        }
      ],
      "stateMutability": "view",
      "type": "function"
    },
    {
      "inputs": [],
      "name": "votingEnded",
      "outputs": [
        {
          "internalType": "bool",
          "name": "",
          "type": "bool"
        }
      ],
      "stateMutability": "view",
      "type": "function"
    },
    {
      "inputs": [
        {
          "internalType": "address",
          "name": "",
          "type": "address"
        }
      ],
      "name": "whitelist",
      "outputs": [
        {
          "internalType": "bool",
          "name": "",
          "type": "bool"
        }
      ],
      "stateMutability": "view",
      "type": "function"
    }
  ],
  "bytecode": "0x60c06040523480156200001157600080fd5b5060405162001c2638038062001c26833981810160405281019062000037919062000464565b336000806101000a81548173ffffffffffffffffffffffffffffffffffffffff021916908373ffffffffffffffffffffffffffffffffffffffff16021790555082608081815250508160a0818152505060005b848110156200010157600160405180604001604052806001815260200160018152509080600181540180825580915050600190039060005260206000209060020201600090919091909150600082015181600001556020820151816001015550508080620000f89062000524565b9150506200008a565b5060005b81518110156200023057600082828151811062000127576200012662000571565b5b60200260200101519050600360008273ffffffffffffffffffffffffffffffffffffffff1673ffffffffffffffffffffffffffffffffffffffff16815260200190815260200160002060009054906101000a900460ff1615620001c1576040517f08c379a0000000000000000000000000000000000000000000000000000000008152600401620001b89062000601565b60405180910390fd5b6001600360008373ffffffffffffffffffffffffffffffffffffffff1673ffffffffffffffffffffffffffffffffffffffff16815260200190815260200160002060006101000a81548160ff021916908315150217905550508080620002279062000524565b91505062000105565b505050505062000623565b6000604051905090565b600080fd5b600080fd5b6000819050919050565b62000264816200024f565b81146200027057600080fd5b50565b600081519050620002848162000259565b92915050565b600080fd5b6000601f19601f8301169050919050565b7f4e487b7100000000000000000000000000000000000000000000000000000000600052604160045260246000fd5b620002da826200028f565b810181811067ffffffffffffffff82111715620002fc57620002fb620002a0565b5b80604052505050565b6000620003116200023b565b90506200031f8282620002cf565b919050565b600067ffffffffffffffff821115620003425762000341620002a0565b5b602082029050602081019050919050565b600080fd5b600073ffffffffffffffffffffffffffffffffffffffff82169050919050565b6000620003858262000358565b9050919050565b620003978162000378565b8114620003a357600080fd5b50565b600081519050620003b7816200038c565b92915050565b6000620003d4620003ce8462000324565b62000305565b90508083825260208201905060208402830185811115620003fa57620003f962000353565b5b835b81811015620004275780620004128882620003a6565b845260208401935050602081019050620003fc565b5050509392505050565b600082601f8301126200044957620004486200028a565b5b81516200045b848260208601620003bd565b91505092915050565b6000806000806080858703121562000481576200048062000245565b5b6000620004918782880162000273565b9450506020620004a48782880162000273565b9350506040620004b78782880162000273565b925050606085015167ffffffffffffffff811115620004db57620004da6200024a565b5b620004e98782880162000431565b91505092959194509250565b7f4e487b7100000000000000000000000000000000000000000000000000000000600052601160045260246000fd5b600062000531826200024f565b91507fffffffffffffffffffffffffffffffffffffffffffffffffffffffffffffffff8203620005665762000565620004f5565b5b600182019050919050565b7f4e487b7100000000000000000000000000000000000000000000000000000000600052603260045260246000fd5b600082825260208201905092915050565b7f4475706c6963617465206164647265737320696e2077686974656c6973740000600082015250565b6000620005e9601e83620005a0565b9150620005f682620005b1565b602082019050919050565b600060208201905081810360008301526200061c81620005da565b9050919050565b60805160a0516115cf620006576000396000610ac3015260008181610632015281816106cb01526109a101526115cf6000f3fe608060405234801561001057600080fd5b50600436106100b45760003560e01c80639d5a0529116100715780639d5a05291461018f578063a3ec138d146101ad578063c3403ddf146101dd578063e2179b8e146101e7578063e43252d714610205578063f851a44014610221576100b4565b80633477ee2e146100b95780634717f97c146100ea5780638733ece7146101095780638ab1d681146101255780639ae8886a146101415780639b19251a1461015f575b600080fd5b6100d360048036038101906100ce9190610cbf565b61023f565b6040516100e1929190610cfb565b60405180910390f35b6100f2610273565b604051610100929190610de2565b60405180910390f35b610123600480360381019061011e9190610e7e565b610423565b005b61013f600480360381019061013a9190610f5d565b61082a565b005b61014961099f565b6040516101569190610f8a565b60405180910390f35b61017960048036038101906101749190610f5d565b6109c3565b6040516101869190610fc0565b60405180910390f35b6101976109e3565b6040516101a49190610fc0565b60405180910390f35b6101c760048036038101906101c29190610f5d565b6109f6565b6040516101d49190610fc0565b60405180910390f35b6101e5610a16565b005b6101ef610ac1565b6040516101fc9190610f8a565b60405180910390f35b61021f600480360381019061021a9190610f5d565b610ae5565b005b610229610c5b565b6040516102369190610fea565b60405180910390f35b6001818154811061024f57600080fd5b90600052602060002090600202016000915090508060000154908060010154905082565b606080600460009054906101000a900460ff166102c5576040517f08c379a00000000000000000000000000000000000000000000000000000000081526004016102bc90611062565b60405180910390fd5b600060018054905067ffffffffffffffff8111156102e6576102e5611082565b5b6040519080825280602002602001820160405280156103145781602001602082028036833780820191505090505b509050600060018054905067ffffffffffffffff81111561033857610337611082565b5b6040519080825280602002602001820160405280156103665781602001602082028036833780820191505090505b50905060005b600180549050811015610416576001818154811061038d5761038c6110b1565b5b9060005260206000209060020201600001548382815181106103b2576103b16110b1565b5b602002602001018181525050600181815481106103d2576103d16110b1565b5b9060005260206000209060020201600101548282815181106103f7576103f66110b1565b5b602002602001018181525050808061040e9061110f565b91505061036c565b5081819350935050509091565b600460009054906101000a900460ff1615610473576040517f08c379a000000000000000000000000000000000000000000000000000000000815260040161046a906111a3565b60405180910390fd5b600360003373ffffffffffffffffffffffffffffffffffffffff1673ffffffffffffffffffffffffffffffffffffffff16815260200190815260200160002060009054906101000a900460ff166104ff576040517f08c379a00000000000000000000000000000000000000000000000000000000081526004016104f69061120f565b60405180910390fd5b600260003373ffffffffffffffffffffffffffffffffffffffff1673ffffffffffffffffffffffffffffffffffffffff16815260200190815260200160002060009054906101000a900460ff161561058c576040517f08c379a00000000000000000000000000000000000000000000000000000000081526004016105839061127b565b60405180910390fd5b60018054905084849050146105d6576040517f08c379a00000000000000000000000000000000000000000000000000000000081526004016105cd906112e7565b60405180910390fd5b6001805490508282905014610620576040517f08c379a000000000000000000000000000000000000000000000000000000000815260040161061790611353565b60405180910390fd5b60005b600180549050811015610775577f00000000000000000000000000000000000000000000000000000000000000008061065f5761065e611373565b5b858583818110610672576106716110b1565b5b905060200201356001838154811061068d5761068c6110b1565b5b90600052602060002090600202016000015409600182815481106106b4576106b36110b1565b5b9060005260206000209060020201600001819055507f0000000000000000000000000000000000000000000000000000000000000000806106f8576106f7611373565b5b83838381811061070b5761070a6110b1565b5b9050602002013560018381548110610726576107256110b1565b5b906000526020600020906002020160010154096001828154811061074d5761074c6110b1565b5b906000526020600020906002020160010181905550808061076d9061110f565b915050610623565b506001600260003373ffffffffffffffffffffffffffffffffffffffff1673ffffffffffffffffffffffffffffffffffffffff16815260200190815260200160002060006101000a81548160ff0219169083151502179055503373ffffffffffffffffffffffffffffffffffffffff167f41fb36d1e99d43c90f7c97533fdb06ff412d7ce8ef97b5b36c59c711d29e7c84428686868660405161081c95949392919061140c565b60405180910390a250505050565b60008054906101000a900473ffffffffffffffffffffffffffffffffffffffff1673ffffffffffffffffffffffffffffffffffffffff163373ffffffffffffffffffffffffffffffffffffffff16146108b8576040517f08c379a00000000000000000000000000000000000000000000000000000000081526004016108af906114a1565b60405180910390fd5b600360008273ffffffffffffffffffffffffffffffffffffffff1673ffffffffffffffffffffffffffffffffffffffff16815260200190815260200160002060009054906101000a900460ff16610944576040517f08c379a000000000000000000000000000000000000000000000000000000000815260040161093b9061150d565b60405180910390fd5b6000600360008373ffffffffffffffffffffffffffffffffffffffff1673ffffffffffffffffffffffffffffffffffffffff16815260200190815260200160002060006101000a81548160ff02191690831515021790555050565b7f000000000000000000000000000000000000000000000000000000000000000081565b60036020528060005260406000206000915054906101000a900460ff1681565b600460009054906101000a900460ff1681565b60026020528060005260406000206000915054906101000a900460ff1681565b60008054906101000a900473ffffffffffffffffffffffffffffffffffffffff1673ffffffffffffffffffffffffffffffffffffffff163373ffffffffffffffffffffffffffffffffffffffff1614610aa4576040517f08c379a0000000000000000000000000000000000000000000000000000000008152600401610a9b906114a1565b60405180910390fd5b6001600460006101000a81548160ff021916908315150217905550565b7f000000000000000000000000000000000000000000000000000000000000000081565b60008054906101000a900473ffffffffffffffffffffffffffffffffffffffff1673ffffffffffffffffffffffffffffffffffffffff163373ffffffffffffffffffffffffffffffffffffffff1614610b73576040517f08c379a0000000000000000000000000000000000000000000000000000000008152600401610b6a906114a1565b60405180910390fd5b600360008273ffffffffffffffffffffffffffffffffffffffff1673ffffffffffffffffffffffffffffffffffffffff16815260200190815260200160002060009054906101000a900460ff1615610c00576040517f08c379a0000000000000000000000000000000000000000000000000000000008152600401610bf790611579565b60405180910390fd5b6001600360008373ffffffffffffffffffffffffffffffffffffffff1673ffffffffffffffffffffffffffffffffffffffff16815260200190815260200160002060006101000a81548160ff02191690831515021790555050565b60008054906101000a900473ffffffffffffffffffffffffffffffffffffffff1681565b600080fd5b600080fd5b6000819050919050565b610c9c81610c89565b8114610ca757600080fd5b50565b600081359050610cb981610c93565b92915050565b600060208284031215610cd557610cd4610c7f565b5b6000610ce384828501610caa565b91505092915050565b610cf581610c89565b82525050565b6000604082019050610d106000830185610cec565b610d1d6020830184610cec565b9392505050565b600081519050919050565b600082825260208201905092915050565b6000819050602082019050919050565b610d5981610c89565b82525050565b6000610d6b8383610d50565b60208301905092915050565b6000602082019050919050565b6000610d8f82610d24565b610d998185610d2f565b9350610da483610d40565b8060005b83811015610dd5578151610dbc8882610d5f565b9750610dc783610d77565b925050600181019050610da8565b5085935050505092915050565b60006040820190508181036000830152610dfc8185610d84565b90508181036020830152610e108184610d84565b90509392505050565b600080fd5b600080fd5b600080fd5b60008083601f840112610e3e57610e3d610e19565b5b8235905067ffffffffffffffff811115610e5b57610e5a610e1e565b5b602083019150836020820283011115610e7757610e76610e23565b5b9250929050565b60008060008060408587031215610e9857610e97610c7f565b5b600085013567ffffffffffffffff811115610eb657610eb5610c84565b5b610ec287828801610e28565b9450945050602085013567ffffffffffffffff811115610ee557610ee4610c84565b5b610ef187828801610e28565b925092505092959194509250565b600073ffffffffffffffffffffffffffffffffffffffff82169050919050565b6000610f2a82610eff565b9050919050565b610f3a81610f1f565b8114610f4557600080fd5b50565b600081359050610f5781610f31565b92915050565b600060208284031215610f7357610f72610c7f565b5b6000610f8184828501610f48565b91505092915050565b6000602082019050610f9f6000830184610cec565b92915050565b60008115159050919050565b610fba81610fa5565b82525050565b6000602082019050610fd56000830184610fb1565b92915050565b610fe481610f1f565b82525050565b6000602082019050610fff6000830184610fdb565b92915050565b600082825260208201905092915050565b7f566f74696e67206e6f7420656e64656400000000000000000000000000000000600082015250565b600061104c601083611005565b915061105782611016565b602082019050919050565b6000602082019050818103600083015261107b8161103f565b9050919050565b7f4e487b7100000000000000000000000000000000000000000000000000000000600052604160045260246000fd5b7f4e487b7100000000000000000000000000000000000000000000000000000000600052603260045260246000fd5b7f4e487b7100000000000000000000000000000000000000000000000000000000600052601160045260246000fd5b600061111a82610c89565b91507fffffffffffffffffffffffffffffffffffffffffffffffffffffffffffffffff820361114c5761114b6110e0565b5b600182019050919050565b7f566f74696e6720656e6465640000000000000000000000000000000000000000600082015250565b600061118d600c83611005565b915061119882611157565b602082019050919050565b600060208201905081810360008301526111bc81611180565b9050919050565b7f4e6f7420696e2077686974656c69737400000000000000000000000000000000600082015250565b60006111f9601083611005565b9150611204826111c3565b602082019050919050565b60006020820190508181036000830152611228816111ec565b9050919050565b7f416c726561647920766f74656400000000000000000000000000000000000000600082015250565b6000611265600d83611005565b91506112708261122f565b602082019050919050565b6000602082019050818103600083015261129481611258565b9050919050565b7f496e76616c696420633120646174610000000000000000000000000000000000600082015250565b60006112d1600f83611005565b91506112dc8261129b565b602082019050919050565b60006020820190508181036000830152611300816112c4565b9050919050565b7f496e76616c696420633220646174610000000000000000000000000000000000600082015250565b600061133d600f83611005565b915061134882611307565b602082019050919050565b6000602082019050818103600083015261136c81611330565b9050919050565b7f4e487b7100000000000000000000000000000000000000000000000000000000600052601260045260246000fd5b600080fd5b82818337505050565b60006113bc8385610d2f565b93507f07ffffffffffffffffffffffffffffffffffffffffffffffffffffffffffffff8311156113ef576113ee6113a2565b5b6020830292506114008385846113a7565b82840190509392505050565b60006060820190506114216000830188610cec565b81810360208301526114348186886113b0565b905081810360408301526114498184866113b0565b90509695505050505050565b7f41646d696e206f6e6c7900000000000000000000000000000000000000000000600082015250565b600061148b600a83611005565b915061149682611455565b602082019050919050565b600060208201905081810360008301526114ba8161147e565b9050919050565b7f41646472657373206e6f7420696e2077686974656c6973740000000000000000600082015250565b60006114f7601883611005565b9150611502826114c1565b602082019050919050565b60006020820190508181036000830152611526816114ea565b9050919050565b7f4164647265737320616c726561647920696e2077686974656c69737400000000600082015250565b6000611563601c83611005565b915061156e8261152d565b602082019050919050565b6000602082019050818103600083015261159281611556565b905091905056fea26469706673582212202b21ee41ef2025e4eb346f08938280d93576d2d36c89346b1870fdb665d3ac1664736f6c63430008130033",
  "linkReferences": {},
  "deployedLinkReferences": {}
}