{
  "_format": "hh-sol-artifact-1",
  "contractName": "EncryptedVoting",
  "sourceName": "contracts/Voting.sol",
  "abi": [
    {
      "inputs": [
        {
          "internalType": "uint256",
          "name": "_candidateCount",
          "type": "uint256"
        },
        {
          "internalType": "uint256",
          "name": "_p",
          "type": "uint256"
        },
        {
          "internalType": "uint256",
          "name": "_g",
          "type": "uint256"
        }
      ],
      "stateMutability": "nonpayable",
      "type": "constructor"
    },
    {
      "inputs": [
        {
          "internalType": "address",
          "name": "_address",
          "type": "address"
        }
      ],
      "name": "addToWhitelist",
      "outputs": [],
      "stateMutability": "nonpayable",
      "type": "function"
    },
    {
      "inputs": [],
      "name": "admin",
      "outputs": [
        {
          "internalType": "address",
          "name": "",
          "type": "address"
        }
      ],
      "stateMutability": "view",
      "type": "function"
    },
    {
      "inputs": [
        {
          "internalType": "uint256",
          "name": "",
          "type": "uint256"
        }
      ],
      "name": "candidates",
      "outputs": [
        {
          "internalType": "uint256",
          "name": "c1",
          "type": "uint256"
        },
        {
          "internalType": "uint256",
          "name": "c2",
          "type": "uint256"
        }
      ],
      "stateMutability": "view",
      "type": "function"
    },
    {
      "inputs": [],
      "name": "endVoting",
      "outputs": [],
      "stateMutability": "nonpayable",
      "type": "function"
    },
    {
      "inputs": [],
      "name": "g",
      "outputs": [
        {
          "internalType": "uint256",
          "name": "",
          "type": "uint256"
        }
      ],
      "stateMutability": "view",
      "type": "function"
    },
    {
      "inputs": [],
      "name": "getResults",
      "outputs": [
        {
          "internalType": "uint256[]",
          "name": "",
          "type": "uint256[]"
        },
        {
          "internalType": "uint256[]",
          "name": "",
          "type": "uint256[]"
        }
      ],
      "stateMutability": "view",
      "type": "function"
    },
    {
      "inputs": [],
      "name": "p",
      "outputs": [
        {
          "internalType": "uint256",
          "name": "",
          "type": "uint256"
        }
      ],
      "stateMutability": "view",
      "type": "function"
    },
    {
      "inputs": [
        {
          "internalType": "address",
          "name": "_address",
          "type": "address"
        }
      ],
      "name": "removeFromWhitelist",
      "outputs": [],
      "stateMutability": "nonpayable",
      "type": "function"
    },
    {
      "inputs": [
        {
          "internalType": "uint256[]",
          "name": "c1List",
          "type": "uint256[]"
        },
        {
          "internalType": "uint256[]",
          "name": "c2List",
          "type": "uint256[]"
        }
      ],
      "name": "vote",
      "outputs": [],
      "stateMutability": "nonpayable",
      "type": "function"
    },
    {
      "inputs": [
        {
          "internalType": "address",
          "name": "",
          "type": "address"
        }
      ],
      "name": "voters",
      "outputs": [
        {
          "internalType": "bool",
          "name": "",
          "type": "bool"
        }
      ],
      "stateMutability": "view",
      "type": "function"
    },
    {
      "inputs": [],
      "name": "votingEnded",
      "outputs": [
        {
          "internalType": "bool",
          "name": "",
          "type": "bool"
        }
      ],
      "stateMutability": "view",
      "type": "function"
    },
    {
      "inputs": [
        {
          "internalType": "address",
          "name": "",
          "type": "address"
        }
      ],
      "name": "whitelist",
      "outputs": [
        {
          "internalType": "bool",
          "name": "",
          "type": "bool"
        }
      ],
      "stateMutability": "view",
      "type": "function"
    }
  ],
  "bytecode": "0x60c06040523480156200001157600080fd5b5060405162001c7038038062001c70833981810160405281019062000037919062000768565b336000806101000a81548173ffffffffffffffffffffffffffffffffffffffff021916908373ffffffffffffffffffffffffffffffffffffffff16021790555081608081815250508060a0818152505060005b838110156200010157600160405180604001604052806001815260200160018152509080600181540180825580915050600190039060005260206000209060020201600090919091909150600082015181600001556020820151816001015550508080620000f890620007f3565b9150506200008a565b50600060405180610280016040528073f39fd6e51aad88f6f4ce6ab8827279cfffb9226673ffffffffffffffffffffffffffffffffffffffff1673ffffffffffffffffffffffffffffffffffffffff1681526020017370997970c51812dc3a010c7d01b50e0d17dc79c873ffffffffffffffffffffffffffffffffffffffff1673ffffffffffffffffffffffffffffffffffffffff168152602001733c44cdddb6a900fa2b585dd299e03d12fa4293bc73ffffffffffffffffffffffffffffffffffffffff1673ffffffffffffffffffffffffffffffffffffffff1681526020017390f79bf6eb2c4f870365e785982e1f101e93b90673ffffffffffffffffffffffffffffffffffffffff1673ffffffffffffffffffffffffffffffffffffffff1681526020017315d34aaf54267db7d7c367839aaf71a00a2c6a6573ffffffffffffffffffffffffffffffffffffffff1673ffffffffffffffffffffffffffffffffffffffff168152602001739965507d1a55bcc2695c58ba16fb37d819b0a4dc73ffffffffffffffffffffffffffffffffffffffff1673ffffffffffffffffffffffffffffffffffffffff16815260200173976ea74026e726554db657fa54763abd0c3a0aa973ffffffffffffffffffffffffffffffffffffffff1673ffffffffffffffffffffffffffffffffffffffff1681526020017314dc79964da2c08b23698b3d3cc7ca32193d995573ffffffffffffffffffffffffffffffffffffffff1673ffffffffffffffffffffffffffffffffffffffff1681526020017323618e81e3f5cdf7f54c3d65f7fbc0abf5b21e8f73ffffffffffffffffffffffffffffffffffffffff1673ffffffffffffffffffffffffffffffffffffffff16815260200173a0ee7a142d267c1f36714e4a8f75612f20a7972073ffffffffffffffffffffffffffffffffffffffff1673ffffffffffffffffffffffffffffffffffffffff16815260200173bcd4042de499d14e55001ccbb24a551f3b95409673ffffffffffffffffffffffffffffffffffffffff1673ffffffffffffffffffffffffffffffffffffffff1681526020017371be63f3384f5fb98995898a86b02fb2426c578873ffffffffffffffffffffffffffffffffffffffff1673ffffffffffffffffffffffffffffffffffffffff16815260200173fabb0ac9d68b0b445fb7357272ff202c5651694a73ffffffffffffffffffffffffffffffffffffffff1673ffffffffffffffffffffffffffffffffffffffff168152602001731cbd3b2770909d4e10f157cabc84c7264073c9ec73ffffffffffffffffffffffffffffffffffffffff1673ffffffffffffffffffffffffffffffffffffffff16815260200173df3e18d64bc6a983f673ab319ccae4f1a57c709773ffffffffffffffffffffffffffffffffffffffff1673ffffffffffffffffffffffffffffffffffffffff16815260200173cd3b766ccdd6ae721141f452c550ca635964ce7173ffffffffffffffffffffffffffffffffffffffff1673ffffffffffffffffffffffffffffffffffffffff168152602001732546bcd3c84621e976d8185a91a922ae77ecec3073ffffffffffffffffffffffffffffffffffffffff1673ffffffffffffffffffffffffffffffffffffffff16815260200173bda5747bfd65f08deb54cb465eb87d40e51b197e73ffffffffffffffffffffffffffffffffffffffff1673ffffffffffffffffffffffffffffffffffffffff16815260200173dd2fd4581271e230360230f9337d5c0430bf44c073ffffffffffffffffffffffffffffffffffffffff1673ffffffffffffffffffffffffffffffffffffffff168152602001738626f6940e2eb28930efb4cef49b2d1f2c9c119973ffffffffffffffffffffffffffffffffffffffff1673ffffffffffffffffffffffffffffffffffffffff16815250905060005b60148110156200071d57600160036000848460148110620006b157620006b062000840565b5b602002015173ffffffffffffffffffffffffffffffffffffffff1673ffffffffffffffffffffffffffffffffffffffff16815260200190815260200160002060006101000a81548160ff02191690831515021790555080806200071490620007f3565b9150506200068b565b50505050506200086f565b600080fd5b6000819050919050565b62000742816200072d565b81146200074e57600080fd5b50565b600081519050620007628162000737565b92915050565b60008060006060848603121562000784576200078362000728565b5b6000620007948682870162000751565b9350506020620007a78682870162000751565b9250506040620007ba8682870162000751565b9150509250925092565b7f4e487b7100000000000000000000000000000000000000000000000000000000600052601160045260246000fd5b600062000800826200072d565b91507fffffffffffffffffffffffffffffffffffffffffffffffffffffffffffffffff8203620008355762000834620007c4565b5b600182019050919050565b7f4e487b7100000000000000000000000000000000000000000000000000000000600052603260045260246000fd5b60805160a0516113cd620008a36000396000610a6d015260008181610632015281816106cb015261094b01526113cd6000f3fe608060405234801561001057600080fd5b50600436106100b45760003560e01c80639d5a0529116100715780639d5a05291461018f578063a3ec138d146101ad578063c3403ddf146101dd578063e2179b8e146101e7578063e43252d714610205578063f851a44014610221576100b4565b80633477ee2e146100b95780634717f97c146100ea5780638733ece7146101095780638ab1d681146101255780639ae8886a146101415780639b19251a1461015f575b600080fd5b6100d360048036038101906100ce9190610bdc565b61023f565b6040516100e1929190610c18565b60405180910390f35b6100f2610273565b604051610100929190610cff565b60405180910390f35b610123600480360381019061011e9190610d9b565b610423565b005b61013f600480360381019061013a9190610e7a565b6107d4565b005b610149610949565b6040516101569190610ea7565b60405180910390f35b61017960048036038101906101749190610e7a565b61096d565b6040516101869190610edd565b60405180910390f35b61019761098d565b6040516101a49190610edd565b60405180910390f35b6101c760048036038101906101c29190610e7a565b6109a0565b6040516101d49190610edd565b60405180910390f35b6101e56109c0565b005b6101ef610a6b565b6040516101fc9190610ea7565b60405180910390f35b61021f600480360381019061021a9190610e7a565b610a8f565b005b610229610b78565b6040516102369190610f07565b60405180910390f35b6001818154811061024f57600080fd5b90600052602060002090600202016000915090508060000154908060010154905082565b606080600460009054906101000a900460ff166102c5576040517f08c379a00000000000000000000000000000000000000000000000000000000081526004016102bc90610f7f565b60405180910390fd5b600060018054905067ffffffffffffffff8111156102e6576102e5610f9f565b5b6040519080825280602002602001820160405280156103145781602001602082028036833780820191505090505b509050600060018054905067ffffffffffffffff81111561033857610337610f9f565b5b6040519080825280602002602001820160405280156103665781602001602082028036833780820191505090505b50905060005b600180549050811015610416576001818154811061038d5761038c610fce565b5b9060005260206000209060020201600001548382815181106103b2576103b1610fce565b5b602002602001018181525050600181815481106103d2576103d1610fce565b5b9060005260206000209060020201600101548282815181106103f7576103f6610fce565b5b602002602001018181525050808061040e9061102c565b91505061036c565b5081819350935050509091565b600460009054906101000a900460ff1615610473576040517f08c379a000000000000000000000000000000000000000000000000000000000815260040161046a906110c0565b60405180910390fd5b600360003373ffffffffffffffffffffffffffffffffffffffff1673ffffffffffffffffffffffffffffffffffffffff16815260200190815260200160002060009054906101000a900460ff166104ff576040517f08c379a00000000000000000000000000000000000000000000000000000000081526004016104f69061112c565b60405180910390fd5b600260003373ffffffffffffffffffffffffffffffffffffffff1673ffffffffffffffffffffffffffffffffffffffff16815260200190815260200160002060009054906101000a900460ff161561058c576040517f08c379a000000000000000000000000000000000000000000000000000000000815260040161058390611198565b60405180910390fd5b60018054905084849050146105d6576040517f08c379a00000000000000000000000000000000000000000000000000000000081526004016105cd90611204565b60405180910390fd5b6001805490508282905014610620576040517f08c379a000000000000000000000000000000000000000000000000000000000815260040161061790611270565b60405180910390fd5b60005b600180549050811015610775577f00000000000000000000000000000000000000000000000000000000000000008061065f5761065e611290565b5b85858381811061067257610671610fce565b5b905060200201356001838154811061068d5761068c610fce565b5b90600052602060002090600202016000015409600182815481106106b4576106b3610fce565b5b9060005260206000209060020201600001819055507f0000000000000000000000000000000000000000000000000000000000000000806106f8576106f7611290565b5b83838381811061070b5761070a610fce565b5b905060200201356001838154811061072657610725610fce565b5b906000526020600020906002020160010154096001828154811061074d5761074c610fce565b5b906000526020600020906002020160010181905550808061076d9061102c565b915050610623565b506001600260003373ffffffffffffffffffffffffffffffffffffffff1673ffffffffffffffffffffffffffffffffffffffff16815260200190815260200160002060006101000a81548160ff02191690831515021790555050505050565b60008054906101000a900473ffffffffffffffffffffffffffffffffffffffff1673ffffffffffffffffffffffffffffffffffffffff163373ffffffffffffffffffffffffffffffffffffffff1614610862576040517f08c379a00000000000000000000000000000000000000000000000000000000081526004016108599061130b565b60405180910390fd5b600360008273ffffffffffffffffffffffffffffffffffffffff1673ffffffffffffffffffffffffffffffffffffffff16815260200190815260200160002060009054906101000a900460ff166108ee576040517f08c379a00000000000000000000000000000000000000000000000000000000081526004016108e590611377565b60405180910390fd5b6000600360008373ffffffffffffffffffffffffffffffffffffffff1673ffffffffffffffffffffffffffffffffffffffff16815260200190815260200160002060006101000a81548160ff02191690831515021790555050565b7f000000000000000000000000000000000000000000000000000000000000000081565b60036020528060005260406000206000915054906101000a900460ff1681565b600460009054906101000a900460ff1681565b60026020528060005260406000206000915054906101000a900460ff1681565b60008054906101000a900473ffffffffffffffffffffffffffffffffffffffff1673ffffffffffffffffffffffffffffffffffffffff163373ffffffffffffffffffffffffffffffffffffffff1614610a4e576040517f08c379a0000000000000000000000000000000000000000000000000000000008152600401610a459061130b565b60405180910390fd5b6001600460006101000a81548160ff021916908315150217905550565b7f000000000000000000000000000000000000000000000000000000000000000081565b60008054906101000a900473ffffffffffffffffffffffffffffffffffffffff1673ffffffffffffffffffffffffffffffffffffffff163373ffffffffffffffffffffffffffffffffffffffff1614610b1d576040517f08c379a0000000000000000000000000000000000000000000000000000000008152600401610b149061130b565b60405180910390fd5b6001600360008373ffffffffffffffffffffffffffffffffffffffff1673ffffffffffffffffffffffffffffffffffffffff16815260200190815260200160002060006101000a81548160ff02191690831515021790555050565b60008054906101000a900473ffffffffffffffffffffffffffffffffffffffff1681565b600080fd5b600080fd5b6000819050919050565b610bb981610ba6565b8114610bc457600080fd5b50565b600081359050610bd681610bb0565b92915050565b600060208284031215610bf257610bf1610b9c565b5b6000610c0084828501610bc7565b91505092915050565b610c1281610ba6565b82525050565b6000604082019050610c2d6000830185610c09565b610c3a6020830184610c09565b9392505050565b600081519050919050565b600082825260208201905092915050565b6000819050602082019050919050565b610c7681610ba6565b82525050565b6000610c888383610c6d565b60208301905092915050565b6000602082019050919050565b6000610cac82610c41565b610cb68185610c4c565b9350610cc183610c5d565b8060005b83811015610cf2578151610cd98882610c7c565b9750610ce483610c94565b925050600181019050610cc5565b5085935050505092915050565b60006040820190508181036000830152610d198185610ca1565b90508181036020830152610d2d8184610ca1565b90509392505050565b600080fd5b600080fd5b600080fd5b60008083601f840112610d5b57610d5a610d36565b5b8235905067ffffffffffffffff811115610d7857610d77610d3b565b5b602083019150836020820283011115610d9457610d93610d40565b5b9250929050565b60008060008060408587031215610db557610db4610b9c565b5b600085013567ffffffffffffffff811115610dd357610dd2610ba1565b5b610ddf87828801610d45565b9450945050602085013567ffffffffffffffff811115610e0257610e01610ba1565b5b610e0e87828801610d45565b925092505092959194509250565b600073ffffffffffffffffffffffffffffffffffffffff82169050919050565b6000610e4782610e1c565b9050919050565b610e5781610e3c565b8114610e6257600080fd5b50565b600081359050610e7481610e4e565b92915050565b600060208284031215610e9057610e8f610b9c565b5b6000610e9e84828501610e65565b91505092915050565b6000602082019050610ebc6000830184610c09565b92915050565b60008115159050919050565b610ed781610ec2565b82525050565b6000602082019050610ef26000830184610ece565b92915050565b610f0181610e3c565b82525050565b6000602082019050610f1c6000830184610ef8565b92915050565b600082825260208201905092915050565b7f566f74696e67206e6f7420656e64656400000000000000000000000000000000600082015250565b6000610f69601083610f22565b9150610f7482610f33565b602082019050919050565b60006020820190508181036000830152610f9881610f5c565b9050919050565b7f4e487b7100000000000000000000000000000000000000000000000000000000600052604160045260246000fd5b7f4e487b7100000000000000000000000000000000000000000000000000000000600052603260045260246000fd5b7f4e487b7100000000000000000000000000000000000000000000000000000000600052601160045260246000fd5b600061103782610ba6565b91507fffffffffffffffffffffffffffffffffffffffffffffffffffffffffffffffff820361106957611068610ffd565b5b600182019050919050565b7f566f74696e6720656e6465640000000000000000000000000000000000000000600082015250565b60006110aa600c83610f22565b91506110b582611074565b602082019050919050565b600060208201905081810360008301526110d98161109d565b9050919050565b7f4e6f7420696e2077686974656c69737400000000000000000000000000000000600082015250565b6000611116601083610f22565b9150611121826110e0565b602082019050919050565b6000602082019050818103600083015261114581611109565b9050919050565b7f416c726561647920766f74656400000000000000000000000000000000000000600082015250565b6000611182600d83610f22565b915061118d8261114c565b602082019050919050565b600060208201905081810360008301526111b181611175565b9050919050565b7f496e76616c696420633120646174610000000000000000000000000000000000600082015250565b60006111ee600f83610f22565b91506111f9826111b8565b602082019050919050565b6000602082019050818103600083015261121d816111e1565b9050919050565b7f496e76616c696420633220646174610000000000000000000000000000000000600082015250565b600061125a600f83610f22565b915061126582611224565b602082019050919050565b600060208201905081810360008301526112898161124d565b9050919050565b7f4e487b7100000000000000000000000000000000000000000000000000000000600052601260045260246000fd5b7f41646d696e206f6e6c7900000000000000000000000000000000000000000000600082015250565b60006112f5600a83610f22565b9150611300826112bf565b602082019050919050565b60006020820190508181036000830152611324816112e8565b9050919050565b7f41646472657373206e6f7420696e2077686974656c6973740000000000000000600082015250565b6000611361601883610f22565b915061136c8261132b565b602082019050919050565b6000602082019050818103600083015261139081611354565b905091905056fea2646970667358221220eec9e0c9094718880b7b68c05188dfa15e9dcdb38f66b5ec1a1af21ca9f4a9bf64736f6c63430008130033",
  "linkReferences": {},
  "deployedLinkReferences": {}
}