{
  "_format": "hh-sol-artifact-1",
  "contractName": "EncryptedVoting",
  "sourceName": "contracts/Voting.sol",
  "abi": [
    {
      "inputs": [
        {
          "internalType": "uint256",
          "name": "_candidateCount",
          "type": "uint256"
        },
        {
          "internalType": "uint256",
          "name": "_p",
          "type": "uint256"
        },
        {
          "internalType": "uint256",
          "name": "_g",
          "type": "uint256"
        },
        {
          "internalType": "address[]",
          "name": "_predefinedWhitelist",
          "type": "address[]"
        }
      ],
      "stateMutability": "nonpayable",
      "type": "constructor"
    },
    {
      "anonymous": false,
      "inputs": [
        {
          "indexed": true,
          "internalType": "address",
          "name": "voter",
          "type": "address"
        },
        {
          "indexed": false,
          "internalType": "uint256",
          "name": "timestamp",
          "type": "uint256"
        },
        {
          "indexed": false,
          "internalType": "uint256[]",
          "name": "c1List",
          "type": "uint256[]"
        },
        {
          "indexed": false,
          "internalType": "uint256[]",
          "name": "c2List",
          "type": "uint256[]"
        }
      ],
      "name": "Voted",
      "type": "event"
    },
    {
      "inputs": [
        {
          "internalType": "address",
          "name": "_address",
          "type": "address"
        }
      ],
      "name": "addToWhitelist",
      "outputs": [],
      "stateMutability": "nonpayable",
      "type": "function"
    },
    {
      "inputs": [],
      "name": "admin",
      "outputs": [
        {
          "internalType": "address",
          "name": "",
          "type": "address"
        }
      ],
      "stateMutability": "view",
      "type": "function"
    },
    {
      "inputs": [
        {
          "internalType": "uint256",
          "name": "",
          "type": "uint256"
        }
      ],
      "name": "candidates",
      "outputs": [
        {
          "internalType": "uint256",
          "name": "c1",
          "type": "uint256"
        },
        {
          "internalType": "uint256",
          "name": "c2",
          "type": "uint256"
        }
      ],
      "stateMutability": "view",
      "type": "function"
    },
    {
      "inputs": [],
      "name": "endVoting",
      "outputs": [],
      "stateMutability": "nonpayable",
      "type": "function"
    },
    {
      "inputs": [],
      "name": "g",
      "outputs": [
        {
          "internalType": "uint256",
          "name": "",
          "type": "uint256"
        }
      ],
      "stateMutability": "view",
      "type": "function"
    },
    {
      "inputs": [],
      "name": "getCandidateCount",
      "outputs": [
        {
          "internalType": "uint256",
          "name": "",
          "type": "uint256"
        }
      ],
      "stateMutability": "view",
      "type": "function"
    },
    {
      "inputs": [],
      "name": "getResults",
      "outputs": [
        {
          "internalType": "uint256[]",
          "name": "",
          "type": "uint256[]"
        },
        {
          "internalType": "uint256[]",
          "name": "",
          "type": "uint256[]"
        }
      ],
      "stateMutability": "view",
      "type": "function"
    },
    {
      "inputs": [],
      "name": "p",
      "outputs": [
        {
          "internalType": "uint256",
          "name": "",
          "type": "uint256"
        }
      ],
      "stateMutability": "view",
      "type": "function"
    },
    {
      "inputs": [
        {
          "internalType": "address",
          "name": "_address",
          "type": "address"
        }
      ],
      "name": "removeFromWhitelist",
      "outputs": [],
      "stateMutability": "nonpayable",
      "type": "function"
    },
    {
      "inputs": [
        {
          "internalType": "uint256[]",
          "name": "c1List",
          "type": "uint256[]"
        },
        {
          "internalType": "uint256[]",
          "name": "c2List",
          "type": "uint256[]"
        }
      ],
      "name": "vote",
      "outputs": [],
      "stateMutability": "nonpayable",
      "type": "function"
    },
    {
      "inputs": [
        {
          "internalType": "address",
          "name": "",
          "type": "address"
        }
      ],
      "name": "voters",
      "outputs": [
        {
          "internalType": "bool",
          "name": "",
          "type": "bool"
        }
      ],
      "stateMutability": "view",
      "type": "function"
    },
    {
      "inputs": [],
      "name": "votingEnded",
      "outputs": [
        {
          "internalType": "bool",
          "name": "",
          "type": "bool"
        }
      ],
      "stateMutability": "view",
      "type": "function"
    },
    {
      "inputs": [
        {
          "internalType": "address",
          "name": "",
          "type": "address"
        }
      ],
      "name": "whitelist",
      "outputs": [
        {
          "internalType": "bool",
          "name": "",
          "type": "bool"
        }
      ],
      "stateMutability": "view",
      "type": "function"
    }
  ],
  "bytecode": "0x60c060405273f39fd6e51aad88f6f4ce6ab8827279cfffb922666000806101000a81548173ffffffffffffffffffffffffffffffffffffffff021916908373ffffffffffffffffffffffffffffffffffffffff1602179055503480156200006557600080fd5b5060405162001c8038038062001c8083398181016040528101906200008b919062000478565b82608081815250508160a0818152505060005b8481101562000115576001604051806040016040528060018152602001600181525090806001815401808255809150506001900390600052602060002090600202016000909190919091506000820151816000015560208201518160010155505080806200010c9062000538565b9150506200009e565b5060005b8151811015620002445760008282815181106200013b576200013a62000585565b5b60200260200101519050600360008273ffffffffffffffffffffffffffffffffffffffff1673ffffffffffffffffffffffffffffffffffffffff16815260200190815260200160002060009054906101000a900460ff1615620001d5576040517f08c379a0000000000000000000000000000000000000000000000000000000008152600401620001cc9062000615565b60405180910390fd5b6001600360008373ffffffffffffffffffffffffffffffffffffffff1673ffffffffffffffffffffffffffffffffffffffff16815260200190815260200160002060006101000a81548160ff0219169083151502179055505080806200023b9062000538565b91505062000119565b505050505062000637565b6000604051905090565b600080fd5b600080fd5b6000819050919050565b620002788162000263565b81146200028457600080fd5b50565b60008151905062000298816200026d565b92915050565b600080fd5b6000601f19601f8301169050919050565b7f4e487b7100000000000000000000000000000000000000000000000000000000600052604160045260246000fd5b620002ee82620002a3565b810181811067ffffffffffffffff8211171562000310576200030f620002b4565b5b80604052505050565b6000620003256200024f565b9050620003338282620002e3565b919050565b600067ffffffffffffffff821115620003565762000355620002b4565b5b602082029050602081019050919050565b600080fd5b600073ffffffffffffffffffffffffffffffffffffffff82169050919050565b600062000399826200036c565b9050919050565b620003ab816200038c565b8114620003b757600080fd5b50565b600081519050620003cb81620003a0565b92915050565b6000620003e8620003e28462000338565b62000319565b905080838252602082019050602084028301858111156200040e576200040d62000367565b5b835b818110156200043b5780620004268882620003ba565b84526020840193505060208101905062000410565b5050509392505050565b600082601f8301126200045d576200045c6200029e565b5b81516200046f848260208601620003d1565b91505092915050565b6000806000806080858703121562000495576200049462000259565b5b6000620004a58782880162000287565b9450506020620004b88782880162000287565b9350506040620004cb8782880162000287565b925050606085015167ffffffffffffffff811115620004ef57620004ee6200025e565b5b620004fd8782880162000445565b91505092959194509250565b7f4e487b7100000000000000000000000000000000000000000000000000000000600052601160045260246000fd5b6000620005458262000263565b91507fffffffffffffffffffffffffffffffffffffffffffffffffffffffffffffffff82036200057a576200057962000509565b5b600182019050919050565b7f4e487b7100000000000000000000000000000000000000000000000000000000600052603260045260246000fd5b600082825260208201905092915050565b7f4475706c6963617465206164647265737320696e2077686974656c6973740000600082015250565b6000620005fd601e83620005b4565b91506200060a82620005c5565b602082019050919050565b600060208201905081810360008301526200063081620005ee565b9050919050565b60805160a0516116156200066b6000396000610b090152600081816106780152818161071101526109e701526116156000f3fe608060405234801561001057600080fd5b50600436106100cf5760003560e01c80639b19251a1161008c578063c3403ddf11610066578063c3403ddf14610216578063e2179b8e14610220578063e43252d71461023e578063f851a4401461025a576100cf565b80639b19251a146101985780639d5a0529146101c8578063a3ec138d146101e6576100cf565b806330a56347146100d45780633477ee2e146100f25780634717f97c146101235780638733ece7146101425780638ab1d6811461015e5780639ae8886a1461017a575b600080fd5b6100dc610278565b6040516100e99190610cde565b60405180910390f35b61010c60048036038101906101079190610d2f565b610285565b60405161011a929190610d5c565b60405180910390f35b61012b6102b9565b604051610139929190610e43565b60405180910390f35b61015c60048036038101906101579190610edf565b610469565b005b61017860048036038101906101739190610fbe565b610870565b005b6101826109e5565b60405161018f9190610cde565b60405180910390f35b6101b260048036038101906101ad9190610fbe565b610a09565b6040516101bf9190611006565b60405180910390f35b6101d0610a29565b6040516101dd9190611006565b60405180910390f35b61020060048036038101906101fb9190610fbe565b610a3c565b60405161020d9190611006565b60405180910390f35b61021e610a5c565b005b610228610b07565b6040516102359190610cde565b60405180910390f35b61025860048036038101906102539190610fbe565b610b2b565b005b610262610ca1565b60405161026f9190611030565b60405180910390f35b6000600180549050905090565b6001818154811061029557600080fd5b90600052602060002090600202016000915090508060000154908060010154905082565b606080600460009054906101000a900460ff1661030b576040517f08c379a0000000000000000000000000000000000000000000000000000000008152600401610302906110a8565b60405180910390fd5b600060018054905067ffffffffffffffff81111561032c5761032b6110c8565b5b60405190808252806020026020018201604052801561035a5781602001602082028036833780820191505090505b509050600060018054905067ffffffffffffffff81111561037e5761037d6110c8565b5b6040519080825280602002602001820160405280156103ac5781602001602082028036833780820191505090505b50905060005b60018054905081101561045c57600181815481106103d3576103d26110f7565b5b9060005260206000209060020201600001548382815181106103f8576103f76110f7565b5b60200260200101818152505060018181548110610418576104176110f7565b5b90600052602060002090600202016001015482828151811061043d5761043c6110f7565b5b602002602001018181525050808061045490611155565b9150506103b2565b5081819350935050509091565b600460009054906101000a900460ff16156104b9576040517f08c379a00000000000000000000000000000000000000000000000000000000081526004016104b0906111e9565b60405180910390fd5b600360003373ffffffffffffffffffffffffffffffffffffffff1673ffffffffffffffffffffffffffffffffffffffff16815260200190815260200160002060009054906101000a900460ff16610545576040517f08c379a000000000000000000000000000000000000000000000000000000000815260040161053c90611255565b60405180910390fd5b600260003373ffffffffffffffffffffffffffffffffffffffff1673ffffffffffffffffffffffffffffffffffffffff16815260200190815260200160002060009054906101000a900460ff16156105d2576040517f08c379a00000000000000000000000000000000000000000000000000000000081526004016105c9906112c1565b60405180910390fd5b600180549050848490501461061c576040517f08c379a00000000000000000000000000000000000000000000000000000000081526004016106139061132d565b60405180910390fd5b6001805490508282905014610666576040517f08c379a000000000000000000000000000000000000000000000000000000000815260040161065d90611399565b60405180910390fd5b60005b6001805490508110156107bb577f0000000000000000000000000000000000000000000000000000000000000000806106a5576106a46113b9565b5b8585838181106106b8576106b76110f7565b5b90506020020135600183815481106106d3576106d26110f7565b5b90600052602060002090600202016000015409600182815481106106fa576106f96110f7565b5b9060005260206000209060020201600001819055507f00000000000000000000000000000000000000000000000000000000000000008061073e5761073d6113b9565b5b838383818110610751576107506110f7565b5b905060200201356001838154811061076c5761076b6110f7565b5b9060005260206000209060020201600101540960018281548110610793576107926110f7565b5b90600052602060002090600202016001018190555080806107b390611155565b915050610669565b506001600260003373ffffffffffffffffffffffffffffffffffffffff1673ffffffffffffffffffffffffffffffffffffffff16815260200190815260200160002060006101000a81548160ff0219169083151502179055503373ffffffffffffffffffffffffffffffffffffffff167f41fb36d1e99d43c90f7c97533fdb06ff412d7ce8ef97b5b36c59c711d29e7c844286868686604051610862959493929190611452565b60405180910390a250505050565b60008054906101000a900473ffffffffffffffffffffffffffffffffffffffff1673ffffffffffffffffffffffffffffffffffffffff163373ffffffffffffffffffffffffffffffffffffffff16146108fe576040517f08c379a00000000000000000000000000000000000000000000000000000000081526004016108f5906114e7565b60405180910390fd5b600360008273ffffffffffffffffffffffffffffffffffffffff1673ffffffffffffffffffffffffffffffffffffffff16815260200190815260200160002060009054906101000a900460ff1661098a576040517f08c379a000000000000000000000000000000000000000000000000000000000815260040161098190611553565b60405180910390fd5b6000600360008373ffffffffffffffffffffffffffffffffffffffff1673ffffffffffffffffffffffffffffffffffffffff16815260200190815260200160002060006101000a81548160ff02191690831515021790555050565b7f000000000000000000000000000000000000000000000000000000000000000081565b60036020528060005260406000206000915054906101000a900460ff1681565b600460009054906101000a900460ff1681565b60026020528060005260406000206000915054906101000a900460ff1681565b60008054906101000a900473ffffffffffffffffffffffffffffffffffffffff1673ffffffffffffffffffffffffffffffffffffffff163373ffffffffffffffffffffffffffffffffffffffff1614610aea576040517f08c379a0000000000000000000000000000000000000000000000000000000008152600401610ae1906114e7565b60405180910390fd5b6001600460006101000a81548160ff021916908315150217905550565b7f000000000000000000000000000000000000000000000000000000000000000081565b60008054906101000a900473ffffffffffffffffffffffffffffffffffffffff1673ffffffffffffffffffffffffffffffffffffffff163373ffffffffffffffffffffffffffffffffffffffff1614610bb9576040517f08c379a0000000000000000000000000000000000000000000000000000000008152600401610bb0906114e7565b60405180910390fd5b600360008273ffffffffffffffffffffffffffffffffffffffff1673ffffffffffffffffffffffffffffffffffffffff16815260200190815260200160002060009054906101000a900460ff1615610c46576040517f08c379a0000000000000000000000000000000000000000000000000000000008152600401610c3d906115bf565b60405180910390fd5b6001600360008373ffffffffffffffffffffffffffffffffffffffff1673ffffffffffffffffffffffffffffffffffffffff16815260200190815260200160002060006101000a81548160ff02191690831515021790555050565b60008054906101000a900473ffffffffffffffffffffffffffffffffffffffff1681565b6000819050919050565b610cd881610cc5565b82525050565b6000602082019050610cf36000830184610ccf565b92915050565b600080fd5b600080fd5b610d0c81610cc5565b8114610d1757600080fd5b50565b600081359050610d2981610d03565b92915050565b600060208284031215610d4557610d44610cf9565b5b6000610d5384828501610d1a565b91505092915050565b6000604082019050610d716000830185610ccf565b610d7e6020830184610ccf565b9392505050565b600081519050919050565b600082825260208201905092915050565b6000819050602082019050919050565b610dba81610cc5565b82525050565b6000610dcc8383610db1565b60208301905092915050565b6000602082019050919050565b6000610df082610d85565b610dfa8185610d90565b9350610e0583610da1565b8060005b83811015610e36578151610e1d8882610dc0565b9750610e2883610dd8565b925050600181019050610e09565b5085935050505092915050565b60006040820190508181036000830152610e5d8185610de5565b90508181036020830152610e718184610de5565b90509392505050565b600080fd5b600080fd5b600080fd5b60008083601f840112610e9f57610e9e610e7a565b5b8235905067ffffffffffffffff811115610ebc57610ebb610e7f565b5b602083019150836020820283011115610ed857610ed7610e84565b5b9250929050565b60008060008060408587031215610ef957610ef8610cf9565b5b600085013567ffffffffffffffff811115610f1757610f16610cfe565b5b610f2387828801610e89565b9450945050602085013567ffffffffffffffff811115610f4657610f45610cfe565b5b610f5287828801610e89565b925092505092959194509250565b600073ffffffffffffffffffffffffffffffffffffffff82169050919050565b6000610f8b82610f60565b9050919050565b610f9b81610f80565b8114610fa657600080fd5b50565b600081359050610fb881610f92565b92915050565b600060208284031215610fd457610fd3610cf9565b5b6000610fe284828501610fa9565b91505092915050565b60008115159050919050565b61100081610feb565b82525050565b600060208201905061101b6000830184610ff7565b92915050565b61102a81610f80565b82525050565b60006020820190506110456000830184611021565b92915050565b600082825260208201905092915050565b7f566f74696e67206e6f7420656e64656400000000000000000000000000000000600082015250565b600061109260108361104b565b915061109d8261105c565b602082019050919050565b600060208201905081810360008301526110c181611085565b9050919050565b7f4e487b7100000000000000000000000000000000000000000000000000000000600052604160045260246000fd5b7f4e487b7100000000000000000000000000000000000000000000000000000000600052603260045260246000fd5b7f4e487b7100000000000000000000000000000000000000000000000000000000600052601160045260246000fd5b600061116082610cc5565b91507fffffffffffffffffffffffffffffffffffffffffffffffffffffffffffffffff820361119257611191611126565b5b600182019050919050565b7f566f74696e6720656e6465640000000000000000000000000000000000000000600082015250565b60006111d3600c8361104b565b91506111de8261119d565b602082019050919050565b60006020820190508181036000830152611202816111c6565b9050919050565b7f4e6f7420696e2077686974656c69737400000000000000000000000000000000600082015250565b600061123f60108361104b565b915061124a82611209565b602082019050919050565b6000602082019050818103600083015261126e81611232565b9050919050565b7f416c726561647920766f74656400000000000000000000000000000000000000600082015250565b60006112ab600d8361104b565b91506112b682611275565b602082019050919050565b600060208201905081810360008301526112da8161129e565b9050919050565b7f496e76616c696420633120646174610000000000000000000000000000000000600082015250565b6000611317600f8361104b565b9150611322826112e1565b602082019050919050565b600060208201905081810360008301526113468161130a565b9050919050565b7f496e76616c696420633220646174610000000000000000000000000000000000600082015250565b6000611383600f8361104b565b915061138e8261134d565b602082019050919050565b600060208201905081810360008301526113b281611376565b9050919050565b7f4e487b7100000000000000000000000000000000000000000000000000000000600052601260045260246000fd5b600080fd5b82818337505050565b60006114028385610d90565b93507f07ffffffffffffffffffffffffffffffffffffffffffffffffffffffffffffff831115611435576114346113e8565b5b6020830292506114468385846113ed565b82840190509392505050565b60006060820190506114676000830188610ccf565b818103602083015261147a8186886113f6565b9050818103604083015261148f8184866113f6565b90509695505050505050565b7f41646d696e206f6e6c7900000000000000000000000000000000000000000000600082015250565b60006114d1600a8361104b565b91506114dc8261149b565b602082019050919050565b60006020820190508181036000830152611500816114c4565b9050919050565b7f41646472657373206e6f7420696e2077686974656c6973740000000000000000600082015250565b600061153d60188361104b565b915061154882611507565b602082019050919050565b6000602082019050818103600083015261156c81611530565b9050919050565b7f4164647265737320616c726561647920696e2077686974656c69737400000000600082015250565b60006115a9601c8361104b565b91506115b482611573565b602082019050919050565b600060208201905081810360008301526115d88161159c565b905091905056fea2646970667358221220bacb4d7f5b16ebfd4ee8d873c1ffa6d6c95c38888e5fbed941777a7aad3a409a64736f6c63430008130033",
  "linkReferences": {},
  "deployedLinkReferences": {}
}